:020000040800F2
:1000000000500020DD110008791100087B11000864
:100010007D1100087F110008811100080000000018
:100020000000000000000000000000008311000834
:1000300085110008000000008711000889110008E0
:1000400025120008251200082512000825120008B4
:1000500025120008251200082512000825120008A4
:100060002512000825120008251200082512000894
:100070002512000825120008251200082512000884
:100080002512000825120008251200082512000874
:100090002512000825120008251200082512000864
:1000A0002512000825120008251200082512000854
:1000B0002512000825120008251200082512000844
:1000C0002512000825120008251200082512000834
:1000D00025120008251200088D11000825120008BD
:1000E0002512000825120008251200080000000053
:1000F0000000000000000000000000000000000000
:0C01000000000000000000005FF808F1A3
:10010C0010B5054C237833B9044B13B10448AFF345
:10011C0000800123237010BD0C00002000000000A3
:10012C00A012000808B5034B1BB103490348AFF3F9
:10013C00008008BD0000000010000020A012000884
:10014C0038B50E4B054618784FF47A73B3FBF0F3C1
:10015C000B4A1068B0FBF3F000F09EF8044658B957
:10016C000F2D09D8024629464FF0FF3000F054F805
:10017C00044B20461D6038BD012038BD0000002016
:10018C000800002004000020074A08B5136803206B
:10019C0043F01003136000F02DF80020FFF7D0FFA0
:1001AC0000F080FF002008BD00200240034A044BF1
:1001BC0011681B780B441360704700BF2C000020A3
:1001CC0000000020014B1868704700BF2C00002075
:1001DC0038B50446FFF7F6FF0546631C1EBF044BFB
:1001EC001B78E418FFF7EEFF401B8442FAD838BDA9
:1001FC0000000020074A0002D36800F4E06023F4FA
:10020C00E0631B041B0C43F0BF6343F40033034354
:10021C00D360704700ED00E0174B30B5DC68C4F3D9
:10022C000224C4F10703251D042B28BF0423062D2B
:10023C004FF0010598BF002405FA03F303F1FF33D7
:10024C0088BF033C1940A14005FA04F4013C22404C
:10025C00002842EA01024FEA0212AFBF00F16040EF
:10026C00064B00F00F00D2B2A5BFD2B200F5614030
:10027C001A5480F8002330BD00ED00E014ED00E0CE
:10028C000123420900F01F0003FA00F0014B43F870
:10029C002200704700E100E00138B0F1807F0AD203
:1002AC00F021064B064A586082F8231000200722E2
:1002BC0098601A6070470120704700BF10E000E0A2
:1002CC0000ED00E00122430900F01F0002FA00F0EB
:1002DC00024A603342F82300704700BF00E100E09F
:1002EC002DE9F74F00221646654BDFF8A4E1DFF845
:1002FC00A4C14FF001080C6808FA06F808EA0404D7
:10030C00A0457FD14D68122D00F0AF8000F288809F
:10031C00022D00F0A7807CD8002D00F08E80012DDE
:10032C0000F09E804FF00F09FF2C93BF824606F120
:10033C008045083DD0F800B092BFB500D0F804B0AD
:10034C00AD0009FA05F82BEA080802FA05F588BF92
:10035C0000F1040A48EA0505CAF80050D1F804A0D7
:10036C001AF0805F4ED0474D464FAD6926F003081A
:10037C0045F00105BD61BD6908F1804805F0010536
:10038C00019508F5803806F0030B019D4FEA8B0BA5
:10039C00D8F8085009FA0BF925EA09093A4DA84290
:1003AC0068D005F58065A84266D005F58065A84241
:1003BC0064D005F58065A8420CBF0325042505FA19
:1003CC000BF545EA0905C8F808501D681AF4803F7A
:1003DC0014BF2543A5431D605D681AF4003F14BF8C
:1003EC002543A5435D609D681AF4801F14BF254307
:1003FC00A5439D60DD681AF4001F14BF2C4325EA49
:10040C000404DC600136102E7FF473AF03B0BDE83A
:10041C00F08F032D22D0112D84D1CA68043281E7CC
:10042C001A4FBD4209D012D8DFF86C904D4504D05C
:10043C0009F580394D457FF475AF8A68C2B1012A40
:10044C000CBFC0F81080C0F8148008226AE775450C
:10045C00F3D06545F1D0DFF84490EBE7002261E77B
:10046C00CA685FE7CA6808325CE7CA680C3259E7A9
:10047C00042257E70025A2E70125A0E702259EE705
:10048C00000401400010024000080140000021104F
:10049C00000031100000321000001110000022107A
:1004AC000AB1016170470904FBE7C3685940C16098
:1004BC007047000003682DE9F341DB07054610D4B3
:1004CC002B689F075ED42B68190700F195802B6869
:1004DC005A0700F1BF80EA69002A40F02D81002004
:1004EC0014E0904C636803F00C03042B07D0636892
:1004FC0003F00C03082B0CD16368DE0309D52368C9
:10050C009C03DDD56B68002BDAD1012002B0BDE86D
:10051C00F0816B68B3F5803F10D1236843F48033CE
:10052C002360FFF74FFE064623689803C8D4FFF7F5
:10053C0049FE801B6428F7D90320E7E79BB92368A1
:10054C0023F480332360236823F480232360FFF794
:10055C0039FE064623689903B2D5FFF733FE801B9C
:10056C006428F7D9E8E7B3F5A02F236803D143F447
:10057C0080232360D1E723F480332360236823F4A2
:10058C008023CDE7674C636813F00C0F07D06368CA
:10059C0003F00C03082B10D16368DA030DD4236825
:1005AC009B0702D52B69012BAFD123686A6923F015
:1005BC00F80343EAC203236085E72A695A4B6AB100
:1005CC0001221A60FFF7FEFD064623689F07ECD454
:1005DC00FFF7F8FD801B0228F7D9ADE71A60FFF78B
:1005EC00F1FD0646236898077FF56DAFFFF7EAFD2E
:1005FC00801B0228F6D99FE7AA694A4C4B4BDAB10B
:10060C0001221A60FFF7DEFD0646636A9B070DD5D3
:10061C004FF4FA52464B1B68B3FBF2F3019300BF45
:10062C00019B5A1E0192002BF9D150E7FFF7CAFD2E
:10063C00801B0228E9D97FE71A60FFF7C3FD064645
:10064C00636A9F077FF543AFFFF7BCFD801B022851
:10065C00F6D971E7334CE369D80024D40127E36958
:10066C0043F08053E361E36903F080530093009BF4
:10067C00304E3368D90518D5EB68012B26D1236A87
:10068C0043F001032362FFF79DFD41F2883680465B
:10069C00236A9B073FD5002F3FF41DAFE36923F07E
:1006AC008053E36117E70027E2E7336843F4807374
:1006BC003360FFF787FD80463368DA05DCD4FFF73B
:1006CC0081FDA0EB08006428F6D935E7ABB9236AA5
:1006DC0041F2883823F001032362236A23F00403D8
:1006EC002362FFF76FFD0646236A9807D3D5FFF701
:1006FC0069FD801B4045F7D91EE7052B236A03D102
:10070C0043F004032362BAE723F001032362236A54
:10071C0023F00403B6E7FFF755FDA0EB0800B04249
:10072C00B6D909E700100240000042428004424260
:10073C000800002000700040224C636803F00C039A
:10074C00082B3FF4E2AE00231F4E022A33602BD15C
:10075C00FFF738FD0746236899011FD42B6AB3F5C0
:10076C00803F05D16268A96822F400320A436260B6
:10077C00696A62680B4322F47412134363600123A9
:10078C003360FFF71FFD054623689A013FF5A7AEBE
:10079C00FFF718FD401B0228F6D9CDE6FFF712FD36
:1007AC00C01B0228D7D9C7E6FFF70CFD0546236806
:1007BC009B017FF594AEFFF705FD401B0228F6D98F
:1007CC00BAE600BF001002406000424230B5194B3F
:1007DC0087B002AC03F1100522461868596808333B
:1007EC0003C2AB421446F7D101238DF80430022327
:1007FC0011498DF805304B6803F00C02082A17D10B
:10080C00C3F3834206A80244DB0312F8102C0CD568
:10081C004B680A48C3F34043504306AA134413F8E9
:10082C00143CB0FBF3F007B030BD05485043FAE779
:10083C000248F8E7B81200080010024000127A00D3
:10084C0000093D00544A2DE9F0411368054603F0B8
:10085C0007038B420E462AD329688C0734D4CA0767
:10086C0047D44D4A136803F007039E42C0F08280C0
:10087C002A684A4C12F0040F40F08780130706D503
:10088C0063682A6923F4605343EAC2036360FFF789
:10089C009DFF6368424AC3F30313D35CD840414BBA
:1008AC0018600020FFF74CFC0020BDE8F0811368B5
:1008BC0023F007030B431360136803F007039942FB
:1008CC00CAD00120BDE8F081344B11F0040F1EBFDB
:1008DC005A6842F4E0625A60080742BF5A6842F410
:1008EC0060525A605A68A86822F0F00202435A60BB
:1008FC00B5E76A68294C012A23681CD113F4003F20
:10090C00DFD0636841F2883823F00303134363603C
:10091C00FFF758FC6B680746012B14D1636803F092
:10092C000C03042B9DD0FFF74DFCC01B4045F5D9A3
:10093C000320BDE8F081022A02D113F0007FDFE72B
:10094C0013F0020FDCE7022B0FD1636803F00C03EA
:10095C00082B86D0FFF736FCC01B4045F5D9E7E7DE
:10096C00FFF730FCC01B4045E2D8636813F00C0F56
:10097C00F6D176E7136823F007033343136013684B
:10098C0003F007039E429CD172E76368E96823F485
:10099C00E0630B43636071E70020024000100240EB
:1009AC00F714000808000020044B054A5B68C3F3E9
:1009BC000223D35C034A1068D840704700100240F1
:1009CC000715000808000020044B054A5B68C3F3B8
:1009DC00C223D35C034A1068D84070470010024011
:1009EC0007150008080000202DE9F0470568C268CB
:1009FC002B69016923F4405313432B618368EA6824
:100A0C000B43416922F4B05222F00C020B43134306
:100A1C00EB606B69826923F4407313436B61404B49
:100A2C0081469D424FF0190446D1FFF7CDFF04FBE0
:100A3C0000F3D9F804604FF06408B600B3FBF6F38A
:100A4C00B3FBF8F31E01FFF7BFFF6043D9F8043086
:100A5C009B00B0FBF3F7FFF7B7FF6043D9F8043006
:100A6C009B00B0FBF3F3B3FBF8F308FB13731B0110
:100A7C003233B3FBF8F303F0F007FFF7A5FF604345
:100A8C00D9F804209200B0FBF2FAFFF79DFF604307
:100A9C00D9F804309B00B0FBF3F3B3FBF8F308FB7D
:100AAC0013A31B013233B3FBF8F303F00F033B43E7
:100ABC003344AB60BDE8F087FFF776FF04FB00F32F
:100ACC00D9F804604FF06408B600B3FBF6F3B3FB3F
:100ADC00F8F31E01FFF768FF6043D9F804309B0060
:100AEC00B0FBF3F7FFF760FF6043D9F804309B00CD
:100AFC00B0FBF3F3B3FBF8F308FB13731B013233B6
:100B0C00B3FBF8F303F0F007FFF74EFF6043D9F89F
:100B1C0004209200B0FBF2FAFFF746FFB7E700BFE4
:100B2C000038014010B5044640B390F8393003F05A
:100B3C00FF021BB980F8382000F0D6FA2423226873
:100B4C0084F83930D368204623F40053D360FFF780
:100B5C004BFF236800201A6922F490421A615A69EB
:100B6C0022F02A025A61DA6842F40052DA60202339
:100B7C00E06384F8393084F83A3010BD012010BDA0
:100B8C0038B50446002000F0A3F9022000F0B8F9B3
:100B9C0000217E2000F088F90025E378AAB2033307
:100BAC00934205F1010516DAB4F804010121000A9B
:100BBC0000F07AF994F80401012100F075F9002194
:100BCC007E2000F071F9022000F09AF9BDE838405F
:100BDC00012000F07DB90121A05C00F065F9DCE793
:100BEC0030B5164B0146B3F8062192B21AB97E28DD
:100BFC0001D1002030BD124A1078154630B97D293C
:100C0C0002D10123137030BD7E2915D0B3F8062113
:100C1C0092B2FF2A04D90020A3F80601287030BD37
:100C2C00B3F8062192B2541CA4B2A3F8064199540D
:100C3C000028DED00020F1E7012030BD320000207A
:100C4C002800002010B5037842784370012302700D
:100C5C000371C3700521044600F0F4F8A4F80401F4
:100C6C002046BDE81040FFF78BBF000070B504466E
:100C7C0086B01422002101A800F0F4FA23786278DF
:100C8C00637016232270E370154901A800F0F2FA84
:100C9C00144901A800F0EEFA251D01AB05AE1A4669
:100CAC0003CAB24228606960134605F10805F6D103
:100CBC000023012523756375A3750223E5756376FF
:100CCC0025761A21204600F0BDF8A4F80401204630
:100CDC00054B1D7006B0BDE87040FFF751BF00BF5B
:100CEC00E5120008EE1200083000002010B5037861
:100CFC00427843700B2302708278C370112A044629
:100D0C0000F1040317D1184A116841605168127A36
:100D1C0059601A7201230373202363730223204644
:100D2C00A3730F2100F08EF8A4F804012046BDE84F
:100D3C001040FFF725BF122A0AD10C4A11684160F6
:100D4C005168127A59601A72012303733923E4E74C
:100D5C00074A116841605168127A59601A7200236F
:100D6C000373044BD9E700BFC8120008D112000866
:100D7C00DA120008E31200088378012B07D004D3A1
:100D8C00103B022B05D8FFF7B1BFFFF75BBFFFF796
:100D9C006DBF7047014B1870704700BF31000020C9
:100DAC00014B1878704700BF3100002008B50023B4
:100DBC00054A0120A2F80631044A137000F088F8A5
:100DCC00BDE8084000F09EB8320000203100002041
:100DDC0070B51A4D2B787BB3194CB4F806319BB215
:100DEC00032B20D923780A2B1DD1B4F80611E278F5
:100DFC0089B28B1F9A4216D1B4F80621B4F8063189
:100E0C0092B29BB22344224412F8022C13F8016CC8
:100E1C00023989B2204646EA022600F013F88642CF
:100E2C00A4F8040104D000232B70A4F8063170BD83
:100E3C002046FFF7A1FFF6E770BD00BF3100002090
:100E4C0032000020FF2370B51C46074D074E0144AD
:100E5C00884202D143EA042070BD10F8012B5A409D
:100E6C00AB5C6340B45CF3E7F7120008F7130008BF
:100E7C000C4B10B51B681A6811070ED192060FD5D2
:100E8C005C68FFF78DFF58B9E0B2FFF7A9FE38B1E7
:100E9C00BDE810400120FFF77DBF1A685968EBE7E9
:100EAC0010BD00BF3C010020084B1B681A681206DD
:100EBC00FCD509B958607047A0F17D02012AF9D818
:100ECC007D225A601A681206FCD5F3E73C0100201B
:100EDC0008B558B1002220210848FFF7E1FA00229A
:100EEC00BDE8084010210548FFF7DABA012220219D
:100EFC000248FFF7D5FA0122F2E700BF00080140D3
:100F0C00FFF766B908B50B4B01211B6826205A69FF
:100F1C0042F001025A61DA6842F49072DA600022FF
:100F2C00FFF77AF92620FFF7ABF9BDE80840262039
:100F3C00FFF7C8B93C01002010B590B02822002161
:100F4C0006A800F08FF90021142201A800F08AF9FC
:100F5C004FF480330122022407930E934FF4E013D5
:100F6C0006A806920A920F930D94FFF7A3FA0F238B
:100F7C004FF4806201930023214601A8029403934D
:100F8C0004920593FFF75EFC10B010BD00B589B05C
:100F9C00FFF7FAF8FFF7D0FF102200210DEB02004B
:100FAC0000F060F9394B4FF400519A69384842F01F
:100FBC0010029A619A69002402F010020092009AC1
:100FCC009A69012542F020029A619A69022602F080
:100FDC0020020192019A9A6942F004029A619A697C
:100FEC0002F004020292029A9A6942F008029A6193
:100FFC009B69002203F008030393039BFFF750FA4D
:10100C0000224FF486612348FFF74AFA4FF400534D
:10101C0004A91F480493069405950796FFF760F9F9
:10102C0004A91C48059404950695FFF759F94FF44B
:10103C00866304A917480493069405950796FFF751
:10104C004FF904A91448059406940496FFF748F93F
:10105C004FF416531148124A846080E80C000C239C
:10106C00C460046143618461C461FFF75BFDFFF7F9
:10107C009DFE04F1804404F584344FF480612046D5
:10108C00FFF713FAFFF7A4FEF7E700BF00100240CA
:10109C000010014000080140000C01403C01002000
:1010AC00004400400E4B82B09A6942F001029A61F2
:1010BC009A6902F001020092009ADA6942F08052B9
:1010CC00DA61DB69074A03F080530193019B536893
:1010DC0023F0E06343F00073536002B0704700BF2D
:1010EC00001002400000014010B5044686B01022EA
:1010FC00002102A800F0B6F822681A4B9A422FD1B0
:10110C0003F5E633DA6902A942F40032DA61DA69EE
:10111C00154802F400320092009A9A69002442F0B9
:10112C0004029A619B6903F004030193019B04235D
:10113C0002930223039303230593FFF7D1F80823AB
:10114C0009480DEB0301029303940494FFF7C8F8CC
:10115C00262022460121FFF75FF82620FFF790F8A2
:10116C0006B010BD00440040000801407047FEE787
:10117C00FEE7FEE7FEE7704770477047FFF716B8CB
:10118C00FFF776BE0F4B1A6842F001021A605968DD
:10119C000D4A0A405A601A6822F0847222F4803296
:1011AC001A601A6822F480221A605A6822F4FE022D
:1011BC005A604FF41F029A604FF00062034B9A6022
:1011CC00704700BF001002400000FFF800ED00E087
:1011DC00002103E00B4B5B58435004310A480B4B86
:1011EC0042189A42F6D30A4A02E0002342F8043B22
:1011FC00084B9A42F9D3FFF7C5FF00F00FF8FFF741
:10120C00C5FE704718150008000000200C000020D7
:10121C000C0000207C010020FEE7000070B50025CA
:10122C000C4E0D4CA41BA410A54209D100F032F8B1
:10123C0000250A4E0A4CA41BA410A54205D170BD72
:10124C0056F8253098470135EEE756F82530984783
:10125C000135F2E7101500081015000810150008EC
:10126C001415000803460244934200D1704703F85A
:10127C00011BF9E7024610B513461C780132002C0D
:10128C00FAD1013B11F8012B03F8012F002AF9D1F7
:10129C0010BD0000F8B500BFF8BC08BC9E467047F6
:0C12AC00F8B500BFF8BC08BC9E467047B7
:1012B80002030405060708090A0B0C0D0E0F10108F
:1012C800504F494E5430312000504F494E5430321F
:1012D80020004552524F52202020004F00565253B2
:1012E8005453542020004741425249454C4600007F
:1012F800C1814001C0804101C0804100C1814001DD
:10130800C0804100C1814000C1814001C0804101CD
:10131800C0804100C1814000C1814001C0804100BE
:10132800C1814001C0804101C0804100C1814001AC
:10133800C0804100C1814000C1814001C08041009E
:10134800C1814001C0804101C0804100C18140008D
:10135800C1814001C0804101C0804100C18140017C
:10136800C0804100C1814000C1814001C08041016D
:10137800C0804100C1814000C1814001C08041005E
:10138800C1814001C0804101C0804100C18140004D
:10139800C1814001C0804101C0804100C18140013C
:1013A800C0804100C1814000C1814001C08041002E
:1013B800C1814001C0804101C0804100C18140011C
:1013C800C0804100C1814000C1814001C08041010D
:1013D800C0804100C1814000C1814001C0804100FE
:1013E800C1814001C0804101C0804100C1814000ED
:1013F800C0C101C30302C2C60607C705C5C404CCE1
:101408000C0DCD0FCFCE0E0ACACB0BC90908C8D810
:101418001819D91BDBDA1A1EDEDF1FDD1D1CDC14D0
:10142800D4D515D71716D6D21213D311D1D010F0A0
:101438003031F133F3F23236F6F737F53534F43C20
:10144800FCFD3DFF3F3EFEFA3A3BFB39F9F83828F0
:10145800E8E929EB2B2AEAEE2E2FEF2DEDEC2CE410
:101468002425E527E7E62622E2E323E12120E0A080
:101478006061A163A3A26266A6A767A56564A46C60
:10148800ACAD6DAF6F6EAEAA6A6BAB69A9A8687890
:10149800B8B979BB7B7ABABE7E7FBF7DBDBC7CB450
:1014A8007475B577B7B67672B2B373B17170B05060
:1014B8009091519353529296565797559594549CA0
:1014C8005C5D9D5F9F9E5E5A9A9B5B995958988870
:1014D8004849894B8B8A4A4E8E8F4F8D4D4C8C4490
:1014E8008485458747468682424383418180400000
:1014F80000000000000000010203040607080900BC
:081508000000000102030400D1
:04151000310100089D
:041514000D010008BD
:0C151800010000001000000000A24A04C6
:04000005080011DD01
:00000001FF
