:020000040800F2
:10000000005000207D4500081944000825440008E0
:100010002B44000831440008374400080000000069
:100020000000000000000000000000003D44000847
:1000300049440008000000005544000861440008DD
:10004000C5450008C5450008C5450008C545000868
:10005000C5450008C545000871440008C5450008AD
:10006000C5450008C5450008C5450008C545000848
:10007000C5450008C5450008C5450008C545000838
:10008000C5450008C5450008C5450008C545000828
:10009000C5450008C5450008C54500087F4400085F
:1000A000C5450008C5450008C5450008C545000808
:1000B0008D440008C5450008C5450008C545000831
:1000C000C5450008C5450008C5450008C5450008E8
:1000D000C5450008C5450008A1440008C5450008FD
:1000E000AD440008C5450008C545000800000000F3
:1000F0000000000000000000000000000000000000
:0C01000000000000000000005FF808F1A3
:1001100010B5054C237833B9044B13B10448AFF341
:1001200000800123237010BD70000020000000003B
:10013000A45D000808B5034B1BB103490348AFF3A6
:10014000008008BD0000000074000020A45D0008CD
:10015000034613F8012B002AFBD1181A0138704707
:1001600081F0004102E000BF83F0004330B54FEA68
:1001700041044FEA430594EA050F08BF90EA020FD5
:100180001FBF54EA000C55EA020C7FEA645C7FEA68
:10019000655C00F0E2804FEA5454D4EB5555B8BF8B
:1001A0006D420CDD2C4480EA020281EA030382EAFC
:1001B000000083EA010180EA020281EA0303362D8E
:1001C00088BF30BD11F0004F4FEA01314FF4801C61
:1001D0004CEA113102D0404261EB410113F0004F73
:1001E0004FEA03334CEA133302D0524263EB43032A
:1001F00094EA050F00F0A780A4F10104D5F1200EC8
:100200000DDB02FA0EFC22FA05F2801841F1000122
:1002100003FA0EF2801843FA05F359410EE0A5F1F6
:1002200020050EF1200E012A03FA0EFC28BF4CF027
:10023000020C43FA05F3C01851EBE37101F00045DD
:1002400007D54FF0000EDCF1000C7EEB00006EEBEA
:100250000101B1F5801F1BD3B1F5001F0CD3490874
:100260005FEA30004FEA3C0C04F101044FEA4452CB
:1002700012F5800F80F09A80BCF1004F08BF5FEA52
:10028000500C50F1000041EB045141EA050130BD32
:100290005FEA4C0C404141EB010111F4801FA4F1D5
:1002A0000104E9D191F0000F04BF01460020B1FA2A
:1002B00081F308BF2033A3F10B03B3F120020CDA62
:1002C0000C3208DD02F1140CC2F10C0201FA0CF040
:1002D00021FA02F10CE002F11402D8BFC2F1200CA5
:1002E00001FA02F120FA0CFCDCBF41EA0C0190405B
:1002F000E41AA2BF01EB0451294330BD6FEA0404A4
:100300001F3C1CDA0C340EDC04F11404C4F120028E
:1003100020FA04F001FA02F340EA030021FA04F3A0
:1003200045EA030130BDC4F10C04C4F1200220FAF7
:1003300002F001FA04F340EA0300294630BD21FA35
:1003400004F0294630BD94F0000F83F4801306BFFB
:1003500081F480110134013D4EE77FEA645C18BFEF
:100360007FEA655C29D094EA050F08BF90EA020F86
:1003700005D054EA000C04BF1946104630BD91EA7E
:10038000030F1EBF0021002030BD5FEA545C05D181
:100390004000494128BF41F0004130BD14F58004C0
:1003A0003CBF01F5801130BD01F0004545F0FE4134
:1003B00041F470014FF0000030BD7FEA645C1ABF69
:1003C000194610467FEA655C1CBF0B46024650EAA0
:1003D000013406BF52EA033591EA030F41F40021CC
:1003E00030BD00BF90F0000F04BF0021704730B552
:1003F0004FF4806404F132044FF000054FF0000127
:1004000050E700BF90F0000F04BF0021704730B5E7
:100410004FF4806404F1320410F0004548BF4042BC
:100420004FF000013EE700BF42004FEAE2014FEA11
:1004300031014FEA02701FBF12F07F4393F07F4FEC
:1004400081F06051704792F0000F14BF93F07F4F1E
:10045000704730B54FF4607401F0004521F0004161
:1004600020E700BF50EA010208BF704730B54FF0E7
:1004700000050AE050EA010208BF704730B511F0EC
:10048000004502D5404261EB41014FF4806404F124
:1004900032045FEA915C3FF4DCAE4FF003025FEAA6
:1004A000DC0C18BF03325FEADC0C18BF033202EB2E
:1004B000DC02C2F1200300FA03FC20FA02F001FA88
:1004C00003FE40EA0E0021FA02F11444C1E600BF27
:1004D00070B54FF0FF0C4CF4E06C1CEA11541DBFDA
:1004E0001CEA135594EA0C0F95EA0C0F00F0DEF8A5
:1004F0002C4481EA030621EA4C5123EA4C5350EA8A
:10050000013518BF52EA033541F4801143F48013DA
:1005100038D0A0FB02CE4FF00005E1FB02E506F06B
:100520000042E0FB03E54FF00006E1FB03569CF0C0
:10053000000F18BF4EF0010EA4F1FF04B6F5007FC6
:1005400064F5407404D25FEA4E0E6D4146EB060638
:1005500042EAC62141EA55514FEAC52040EA5E50C1
:100560004FEACE2EB4F1FD0C88BFBCF5E06F1ED86B
:10057000BEF1004F08BF5FEA500E50F1000041EBA2
:10058000045170BD06F0004646EA010140EA02004F
:1005900081EA0301B4EB5C04C2BFD4EB0C0541EA71
:1005A000045170BD41F480114FF0000E013C00F386
:1005B000AB8014F1360FDEBF002001F0004170BDAA
:1005C000C4F10004203C35DA0C341BDC04F11404C3
:1005D000C4F1200500FA05F320FA04F001FA05F24F
:1005E00040EA020001F0004221F0004110EBD3701C
:1005F00021FA04F642EB06015EEA430E08BF20EA48
:10060000D37070BDC4F10C04C4F1200500FA04F3EA
:1006100020FA05F001FA04F240EA020001F000417C
:1006200010EBD37041F100015EEA430E08BF20EAEF
:10063000D37070BDC4F1200500FA05F24EEA020E37
:1006400020FA04F301FA05F243EA020321FA04F066
:1006500001F0004121FA04F220EA020000EBD3701D
:100660005EEA430E08BF20EAD37070BD94F0000F1D
:100670000FD101F00046400041EB010111F4801F51
:1006800008BF013CF7D041EA060195F0000F18BF02
:10069000704703F00046520043EB030313F4801F3E
:1006A00008BF013DF7D043EA0603704794EA0C0FF8
:1006B0000CEA135518BF95EA0C0F0CD050EA41060E
:1006C00018BF52EA4306D1D181EA030101F000418B
:1006D0004FF0000070BD50EA410606BF10461946B3
:1006E00052EA430619D094EA0C0F02D150EA0136BF
:1006F00013D195EA0C0F05D152EA03361CBF104600
:1007000019460AD181EA030101F0004141F0FE419E
:1007100041F470014FF0000070BD41F0FE4141F422
:10072000780170BD70B54FF0FF0C4CF4E06C1CEA22
:1007300011541DBF1CEA135594EA0C0F95EA0C0FD7
:1007400000F0A7F8A4EB050481EA030E52EA033592
:100750004FEA013100F088804FEA03334FF08055B3
:1007600045EA131343EA12634FEA022245EA1115E0
:1007700045EA10654FEA00260EF000419D4208BF91
:10078000964244F1FD0404F5407402D25B084FEA3E
:100790003202B61A65EB03055B084FEA32024FF4EA
:1007A00080104FF4002CB6EB020E75EB030E22BF47
:1007B000B61A754640EA0C005B084FEA3202B6EB07
:1007C000020E75EB030E22BFB61A754640EA5C00B6
:1007D0005B084FEA3202B6EB020E75EB030E22BF46
:1007E000B61A754640EA9C005B084FEA3202B6EB47
:1007F000020E75EB030E22BFB61A754640EADC0006
:1008000055EA060E18D04FEA051545EA16754FEA67
:1008100006164FEAC30343EA52734FEAC2025FEA85
:100820001C1CC0D111F4801F0BD141EA00014FF014
:1008300000004FF0004CB6E711F4801F04BF0143E5
:100840000020B4F1FD0C88BFBCF5E06F3FF6AFAE01
:10085000B5EB030C04BFB6EB020C5FEA500C50F191
:10086000000041EB045170BD0EF0004E4EEA113114
:1008700014EB5C04C2BFD4EB0C0541EA045170BD1B
:1008800041F480114FF0000E013C90E645EA060E5F
:100890008DE60CEA135594EA0C0F08BF95EA0C0F8D
:1008A0003FF43BAF94EA0C0F0AD150EA01347FF4D5
:1008B00034AF95EA0C0F7FF425AF104619462CE7AC
:1008C00095EA0C0F06D152EA03353FF4FDAE10460F
:1008D000194622E750EA410618BF52EA43067FF460
:1008E000C5AE50EA41047FF40DAF52EA43057FF4F0
:1008F000EBAE12E74FF0FF3C06E000BF4FF0010CFB
:1009000002E000BF4FF0010C4DF804CD4FEA410C5E
:100910007FEA6C5C4FEA430C18BF7FEA6C5C1BD02B
:1009200001B050EA410C0CBF52EA430C91EA030FAC
:1009300002BF90EA020F0020704710F1000F91EA09
:10094000030F58BF994208BF90422CBFD8176FEAD7
:10095000E37040F0010070474FEA410C7FEA6C5CA5
:1009600002D150EA013C07D14FEA430C7FEA6C5CAC
:10097000D6D152EA033CD3D05DF8040B704700BFD8
:100980008446104662468C461946634600E000BF26
:1009900001B5FFF7B7FF002848BF10F1000F01BDF8
:1009A0004DF808EDFFF7F4FF0CBF012000205DF8C3
:1009B00008FB00BF4DF808EDFFF7EAFF34BF012048
:1009C00000205DF808FB00BF4DF808EDFFF7E0FFE1
:1009D00094BF012000205DF808FB00BF4DF808ED32
:1009E000FFF7CEFF94BF012000205DF808FB00BF99
:1009F0004DF808EDFFF7C4FF34BF012000205DF87B
:100A000008FB00BF4FEA410212F5001215D211D5C2
:100A10006FF47873B3EB625212D94FEAC12343F0FB
:100A2000004343EA505311F0004F23FA02F018BF7D
:100A3000404270474FF00000704750EA013005D146
:100A400011F0004008BF6FF0004070474FF0000009
:100A5000704700BF80F0004002E000BF81F000411D
:100A600042001FBF5FEA410392EA030F7FEA226C54
:100A70007FEA236C6AD04FEA1262D2EB1363C1BFE4
:100A8000D218414048404140B8BF5B42192B88BF53
:100A9000704710F0004F40F4000020F07F4018BF76
:100AA000404211F0004F41F4000121F07F4118BF96
:100AB000494292EA030F3FD0A2F1010241FA03FC3E
:100AC00010EB0C00C3F1200301FA03F100F0004326
:100AD00002D5494260EB4000B0F5000F13D3B0F1EE
:100AE000807F06D340084FEA310102F10102FE2A5D
:100AF00051D2B1F1004F40EBC25008BF20F00100CD
:100B000040EA03007047490040EB000010F4000F7A
:100B1000A2F10102EDD1B0FA80FCACF1080CB2EB0D
:100B20000C0200FA0CF0AABF00EBC250524218436C
:100B3000BCBFD0401843704792F0000F81F4000111
:100B400006BF80F400000132013BB5E74FEA4103E4
:100B50007FEA226C18BF7FEA236C21D092EA030F50
:100B600004D092F0000F08BF0846704790EA010FCA
:100B70001CBF0020704712F07F4F04D1400028BFF7
:100B800040F00040704712F100723CBF00F50000D9
:100B9000704700F0004343F0FE4040F4000070470F
:100BA0007FEA226216BF08467FEA236301464202BB
:100BB00006BF5FEA412390EA010F40F480007047CE
:100BC0004FF0000304E000BF10F0004348BF404274
:100BD0005FEA000C08BF704743F0964301464FF0B0
:100BE00000001CE050EA010208BF70474FF000030C
:100BF0000AE000BF50EA010208BF704711F000434D
:100C000002D5404261EB41015FEA010C02BF84461C
:100C10000146002043F0B64308BFA3F18053A3F57B
:100C20000003BCFA8CF2083AA3EBC25310DB01FAC2
:100C300002FC634400FA02FCC2F12002BCF1004F46
:100C400020FA02F243EB020008BF20F001007047D7
:100C500002F1200201FA02FCC2F1200250EA4C002B
:100C600021FA02F243EB020008BF20EADC70704771
:100C70004FF0FF0C1CEAD0521EBF1CEAD15392EA7F
:100C80000C0F93EA0C0F6FD01A4480EA010C40025B
:100C900018BF5FEA41211ED04FF0006343EA5010B5
:100CA00043EA5111A0FB01310CF00040B1F5000FF7
:100CB0003EBF490041EAD3715B0040EA010062F1A6
:100CC0007F02FD2A1DD8B3F1004F40EBC25008BF90
:100CD00020F00100704790F0000F0CF0004C08BFAE
:100CE00049024CEA502040EA51207F3AC2BFD2F17B
:100CF000FF0340EAC250704740F400004FF0000389
:100D0000013A5DDC12F1190FDCBF00F000407047C2
:100D1000C2F10002410021FA02F1C2F1200200FA00
:100D200002FC5FEA310040F1000053EA4C0308BFC7
:100D300020EADC70704792F0000F00F0004C02BF18
:100D4000400010F4000F013AF9D040EA0C0093F093
:100D5000000F01F0004C02BF490011F4000F013BED
:100D6000F9D041EA0C018FE70CEAD15392EA0C0F5B
:100D700018BF93EA0C0F0AD030F0004C18BF31F0C6
:100D8000004CD8D180EA010000F00040704790F09C
:100D9000000F17BF90F0004F084691F0000F91F040
:100DA000004F14D092EA0C0F01D142020FD193EA06
:100DB0000C0F03D14B0218BF084608D180EA01008E
:100DC00000F0004040F0FE4040F40000704740F06A
:100DD000FE4040F4400070474FF0FF0C1CEAD05238
:100DE0001EBF1CEAD15392EA0C0F93EA0C0F69D094
:100DF000A2EB030280EA010C49024FEA402037D0FF
:100E00004FF0805343EA111143EA10130CF00040F5
:100E10008B4238BF5B0042F17D024FF4000C8B42E5
:100E200024BF5B1A40EA0C00B3EB510F24BFA3EBC5
:100E3000510340EA5C00B3EB910F24BFA3EB910395
:100E400040EA9C00B3EBD10F24BFA3EBD10340EAEF
:100E5000DC001B0118BF5FEA1C1CE0D1FD2A3FF635
:100E600050AF8B4240EBC25008BF20F001007047EA
:100E70000CF0004C4CEA50207F32C2BFD2F1FF038D
:100E800040EAC250704740F400004FF00003013ABE
:100E900037E792F0000F00F0004C02BF400010F462
:100EA000000F013AF9D040EA0C0093F0000F01F076
:100EB000004C02BF490011F4000F013BF9D041EA98
:100EC0000C0195E70CEAD15392EA0C0F08D14202CB
:100ED0007FF47DAF93EA0C0F7FF470AF084676E79E
:100EE00093EA0C0F04D14B023FF44CAF08466EE777
:100EF00030F0004C18BF31F0004CCAD130F0004245
:100F00007FF45CAF31F000437FF43CAF5FE700BF9C
:100F10004FF0FF3C06E000BF4FF0010C02E000BFC5
:100F20004FF0010C4DF804CD4FEA40024FEA410367
:100F30007FEA226C18BF7FEA236C11D001B052EA1D
:100F4000530C18BF90EA010F58BFB2EB030088BFE3
:100F5000C81738BF6FEAE17018BF40F00100704752
:100F60007FEA226C02D15FEA402C05D17FEA236C34
:100F7000E4D15FEA412CE1D05DF8040B704700BF7B
:100F8000844608466146FFE70FB5FFF7C9FF002812
:100F900048BF10F1000F0FBD4DF808EDFFF7F4FF4B
:100FA0000CBF012000205DF808FB00BF4DF808EDE4
:100FB000FFF7EAFF34BF012000205DF808FB00BF07
:100FC0004DF808EDFFF7E0FF94BF012000205DF829
:100FD00008FB00BF4DF808EDFFF7D2FF94BF0120DA
:100FE00000205DF808FB00BF4DF808EDFFF7C8FFD3
:100FF00034BF012000205DF808FB00BF80B500AFC2
:10100000084A084B1B6843F010031360032000F0EC
:1010100059F9002000F008F803F006F900231846FB
:1010200080BD00BF0020024080B582B000AF786074
:10103000124B1A68124B1B7819464FF47A73B3FBA4
:10104000F1F3B2FBF3F3184600F071F90346002BFD
:1010500001D001230EE07B680F2B0AD800227968AB
:101060004FF0FF3000F039F9064A7B681360002327
:1010700000E0012318460837BD4680BD0800002067
:10108000040000200000002080B400AF054B1B7856
:101090001A46054B1B681344034A136000BFBD4644
:1010A00080BC704704000020B800002080B400AF6E
:1010B000024B1B681846BD4680BC7047B800002034
:1010C00080B584B000AF7860FFF7F0FFB8607B6850
:1010D000FB60FB68B3F1FF3F05D0094B1B781A4654
:1010E000FB681344FB6000BFFFF7E0FF0246BB68EC
:1010F000D21AFB689A42F7D300BF1037BD4680BDB5
:101100000400002080B485B000AF78607B6803F0F5
:101110000703FB600C4BDB68BB60BA684FF6FF034C
:101120001340BB60FB681A02BB68134343F0BF6304
:1011300043F40033BB60044ABB68D36000BF14377C
:10114000BD4680BC704700BF00ED00E080B400AF3A
:10115000044BDB681B0A03F007031846BD4680BC3E
:10116000704700BF00ED00E080B483B000AF0346DD
:10117000FB71084997F907305B09FA7902F01F0201
:10118000012000FA02F241F8232000BF0C37BD46CF
:1011900080BC704700E100E080B483B000AF03463C
:1011A000FB71094997F907305B09FA7902F01F02D0
:1011B000012000FA02F2603341F8232000BF0C370F
:1011C000BD4680BC704700BF00E100E080B483B042
:1011D00000AF03463960FB7197F90730002B0BDA3B
:1011E0000D49FB7903F00F03043B3A68D2B21201B8
:1011F000D2B20B441A7609E0084997F907303A68E9
:10120000D2B21201D2B20B4483F8002300BF0C37D4
:10121000BD4680BC704700BF00ED00E000E100E08B
:1012200080B489B000AFF860B9607A60FB6803F001
:101230000703FB61FB69C3F10703042B28BF0423E9
:10124000BB61FB690433062B02D9FB69033B00E059
:1012500000237B610122BB6902FA03F35A1EBB68BB
:101260001A407B699A4001217B6901FA03F3591EF8
:101270007B680B40134318462437BD4680BC70473B
:1012800080B582B000AF78607B68013BB3F1807FAE
:1012900001D301230FE00A4A7B68013B53600F2111
:1012A0004FF0FF30FFF792FF054B00229A60044B8E
:1012B00007221A60002318460837BD4680BD00BFCC
:1012C00010E000E080B582B000AF78607868FFF78A
:1012D00019FF00BF0837BD4680BD80B586B000AF9E
:1012E0000346B9607A60FB7300237B61FFF72EFF32
:1012F00078617A68B9687869FFF792FF024697F9D2
:101300000F3011461846FFF761FF00BF1837BD4682
:1013100080BD80B582B000AF0346FB7197F90730FE
:101320001846FFF721FF00BF0837BD4680BD80B5D6
:1013300082B000AF78607868FFF7A2FF03461846D6
:101340000837BD4680BD80B582B000AF0346FB7153
:1013500097F907301846FFF71FFF00BF0837BD4653
:1013600080BD000080B48BB000AF7860396000238E
:10137000FB610023BB6100237B6100233B620023F0
:101380003B6100237B6227E101227B6A02FA03F3BF
:10139000FB613B681A68FB691340BB61BA69FB6972
:1013A0009A4240F016813B685B68122B34D0122BB6
:1013B0000DD8022B2BD0022B04D8002B31D0012BBF
:1013C0001CD048E0032B43D0112B1BD043E0874AAD
:1013D000934226D0854A934206D8854A934220D02C
:1013E000844A93421DD036E0834A934219D0834AFF
:1013F000934216D0824A934213D02CE03B68DB68BC
:101400003B6228E03B68DB6804333B6223E03B68D7
:10141000DB6808333B621EE03B68DB680C333B62F1
:1014200019E03B689B68002B02D104233B6212E069
:101430003B689B68012B05D108233B627B68FA69F6
:101440001A6108E008233B627B68FA695A6102E08E
:1014500000233B6200BFBB69FF2B01D87B6801E022
:101460007B680433FB60BB69FF2B02D87B6A9B005F
:1014700002E07B6A083B9B003B61FB681A680F2116
:101480003B6901FA03F3DB431A40396A3B6901FA0D
:1014900003F31A43FB681A603B685B6803F08053F0
:1014A000002B00F09680574A564B9B6943F001038E
:1014B0009361544B9B6903F00103BB60BB68524AC4
:1014C0007B6A9B08023352F823307B617B6A03F00E
:1014D00003039B000F2202FA03F3DB437A691340F4
:1014E0007B617B68494A934213D07B68484A9342A8
:1014F0000DD07B68474A934207D07B68464A9342A7
:1015000001D1032306E0042304E0022302E00123C7
:1015100000E000237A6A02F00302920093407A69A5
:1015200013437B6138497B6A9B0802337A6941F82F
:1015300023203B685B6803F48033002B06D03749D7
:10154000364B1A68BB6913430B6006E03349334BD3
:101550001A68BB69DB4313400B603B685B6803F4AC
:101560000033002B06D02D492C4B5A68BB6913431E
:101570004B6006E02949294B5A68BB69DB4313409D
:101580004B603B685B6803F48013002B06D0234953
:10159000224B9A68BB6913438B6006E01F491F4BBF
:1015A0009A68BB69DB4313408B603B685B6803F45C
:1015B0000013002B06D01949184BDA68BB69134396
:1015C000CB6006E01549154BDA68BB69DB43134075
:1015D000CB607B6A01337B627B6A0F2B7FF6D4AED4
:1015E00000BF2C37BD4680BC704700BF00002110F3
:1015F0000000111000001210000031100000321025
:1016000000002210001002400000014000080140CC
:10161000000C014000100140001401400004014092
:1016200080B485B000AF78600B467B807B689A6899
:101630007B881340002B02D00123FB7301E00023C1
:10164000FB73FB7B18461437BD4680BC704780B4E3
:1016500083B000AF78600B467B8013467B707B784D
:10166000002B03D07A887B681A6103E07B881A0418
:101670007B681A6100BF0C37BD4680BC704780B4E0
:1016800083B000AF78600B467B807B68DA687B882C
:101690005A407B68DA6000BF0C37BD4680BC70479B
:1016A00080B582B000AF0346FB80084B5A69FB88C7
:1016B0001340002B06D0054AFB885361FB8818466F
:1016C00002F04AF900BF0837BD4680BD0004014062
:1016D00080B584B000AF78600023FB600023BB605E
:1016E0007B68002B01D10123E7E07B6893F83D3054
:1016F000DBB2002B06D17B68002283F83C2078689F
:1017000002F0C4FD7B68242283F83D207B681B68BF
:101710007A681268126822F001021A6000F0A8FFCD
:10172000B8607B685B68674A934207D8BB68664AC3
:10173000934294BF01230023DBB206E0BB68634AF7
:10174000934294BF01230023DBB2002B01D001237D
:10175000B3E0BB685E4AA2FB03239B0CFB607B6883
:101760001B68FA685A607B681A687B685B68554931
:101770008B4202D8FB68013309E0FB684FF4967195
:1017800001FB03F35349A1FB03139B0901331362CC
:101790007B6819687B685B684A4A93420DD8BB68CE
:1017A0005A1E7B685B685B00B2FBF3F30133C3F343
:1017B0000B03042B38BF04234FE07B689B68002B8E
:1017C00011D1BB68581E7B685A6813465B001344EE
:1017D000B0FBF3F30133C3F30B03002B0CBF012366
:1017E0000023DBB212E0BB68581E7B685A681346C0
:1017F0009B0013449A001344B0FBF3F30133C3F38B
:101800000B03002B0CBF01230023DBB2002B01D004
:10181000012322E07B689B68002B0ED1BB68581E19
:101820007B685A6813465B001344B0FBF3F3013343
:10183000C3F30B0343F400430FE0BB68581E7B68FF
:101840005A6813469B0013449A001344B0FBF3F309
:101850000133C3F30B0343F44043CB617B681B6844
:101860007A68D1697A68126A0A431A607B681B68D1
:101870007A6811697A68D2680A439A607B681B6843
:101880007A6851697A6892690A43DA607B681B68F2
:101890007A681268126842F001021A607B680022BE
:1018A0001A647B68202283F83D207B6800221A633B
:1018B0007B68002283F83E20002318461037BD467F
:1018C00080BD00BFA08601007F841E00FF083D0090
:1018D00083DE1B43D34D621080B588B002AFF86041
:1018E0007A601A460B467B8113463B8100237B615D
:1018F000FFF7DCFB7861FB6893F83D30DBB2202B0F
:1019000040F0EE807B690093192301227749F86843
:1019100000F072F90346002B01D00223E1E0FB68DE
:1019200093F83C30012B01D10223DAE0FB6801225D
:1019300083F83C20FB681B681B6803F00103012B44
:1019400007D0FB681B68FA681268126842F001024F
:101950001A60FB681B68FA681268126822F4006259
:101960001A60FB68212283F83D20FB68102283F86F
:101970003E20FB6800221A64FB687A685A62FB68A2
:101980003A895A85FB685A4ADA62FB685B8D9AB2DB
:10199000FB681A8579897B693A6AF86800F0AAF8C9
:1019A0000346002B0FD0FB681B6C042B05D1FB6892
:1019B000002283F83C20012393E0FB68002283F897
:1019C0003C2003238DE000233B61FB681B685B69BF
:1019D0003B61FB681B689B693B613B6966E07A6918
:1019E000396AF86800F0C7F90346002B0FD0FB688E
:1019F0001B6C042B09D1FB681B68FA68126812681B
:101A000042F400721A6001236BE0032369E0FB6873
:101A10001A68FB685B6A581CF96848621B78136196
:101A2000FB685B8D9BB2013B9AB2FB685A85FB68F1
:101A30001B8D013B9AB2FB681A85FB681B685B69CA
:101A400003F00403042B19D1FB681B8D002B15D068
:101A5000FB681A68FB685B6A581CF96848621B7867
:101A60001361FB685B8D9BB2013B9AB2FB685A85A0
:101A7000FB681B8D013B9AB2FB681A857A69396A4B
:101A8000F86800F0B5F90346002B0FD0FB681B6C1B
:101A9000042B09D1FB681B68FA681268126842F4CB
:101AA00000721A6001231CE003231AE0FB681B8DFF
:101AB000002B94D1FB681B68FA681268126842F424
:101AC00000721A60FB68202283F83D20FB68002228
:101AD00083F83E20FB68002283F83C20002300E0CE
:101AE000022318461837BD4680BD00BF0200100013
:101AF0000000FFFF80B588B002AFF8607A603B60FD
:101B00000B467B81FB68DB6A7B617B69042B06D01B
:101B10007B69012B03D07B6913F5803F08D1FB68FB
:101B20001B68FA681268126842F480721A600BE04F
:101B3000FB681B6B122B07D1FB681B68FA681268E5
:101B4000126842F480721A603B6800937B6800223E
:101B50004FF00111F86800F04FF80346002B01D058
:101B6000032340E0FB681B69B3F5804F07D1FB6896
:101B70001B687A89D2B202F0FE021A6121E0FB688A
:101B80001B687A89D211D2B202F00602D2B262F098
:101B90000F02D2B21A613B687A681549F86800F002
:101BA0007CF80346002B07D0FB681B6C042B01D18B
:101BB000012318E0032316E0FB681B687A89D2B280
:101BC0001A613B687A680B49F86800F066F80346CA
:101BD000002B07D0FB681B6C042B01D1012302E012
:101BE000032300E0002318461837BD4680BD00BF20
:101BF000080001000200010080B584B000AFF86069
:101C0000B9603B601346FB711FE03B68B3F1FF3FD7
:101C10001BD03B68002B07D0FFF748FA0246BB6990
:101C2000D21A3B689A4210D9FB6800221A63FB68FB
:101C3000202283F83D20FB68002283F83E20FB68C9
:101C4000002283F83C20032323E0BB681B0CDBB29B
:101C5000012B0DD1FB681B685B69DA43BB6813403D
:101C60009BB2002B0CBF01230023DBB21A460CE011
:101C7000FB681B689B69DA43BB6813409BB2002B6F
:101C80000CBF01230023DBB21A46FB799A42BCD079
:101C9000002318461037BD4680BD80B584B000AF24
:101CA000F860B9607A603B6040E0FB681B685B6984
:101CB00003F48063B3F5806F1CD1FB681B68FA687E
:101CC0001268126842F400721A60FB681B686FF4B5
:101CD00080625A61FB6804221A64FB6800221A635E
:101CE000FB68202283F83D20FB68002283F83C201B
:101CF00001233CE07B68B3F1FF3F17D07B68002BEA
:101D000007D0FFF7D3F902463B68D21A7B689A42A4
:101D10000CD9FB6800221A63FB68202283F83D205F
:101D2000FB68002283F83C20032320E0BB681B0CE7
:101D3000DBB2012B0CD1FB681B685B69DA43BB6823
:101D400013409BB2002B14BF01230023DBB20BE036
:101D5000FB681B689B69DA43BB6813409BB2002B8E
:101D600014BF01230023DBB2002B9ED100231846B1
:101D70001037BD4680BD80B584B000AFF860B96053
:101D80007A6029E0F86800F070F80346002B01D073
:101D9000012329E0BB68B3F1FF3F1DD0BB68002BD6
:101DA00007D0FFF783F902467B68D21ABB689A42D4
:101DB00012D9FB681B6C43F02002FB681A64FB68B5
:101DC00000221A63FB68202283F83D20FB68002272
:101DD00083F83C20032307E0FB681B685B6903F082
:101DE0008003802BCED1002318461037BD4680BD1E
:101DF00080B584B000AFF860B9607A6029E0F86817
:101E000000F033F80346002B01D0012329E0BB6822
:101E1000B3F1FF3F1DD0BB68002B07D0FFF746F999
:101E200002467B68D21ABB689A4212D9FB681B6CC7
:101E300043F02002FB681A64FB6800221A63FB6807
:101E4000202283F83D20FB68002283F83C200323F6
:101E500007E0FB681B685B6903F00403042BCED129
:101E6000002318461037BD4680BD80B483B000AF54
:101E700078607B681B685B6903F48063B3F5806FEF
:101E800014D17B681B686FF480625A617B680422FE
:101E90001A647B6800221A637B68202283F83D2045
:101EA0007B68002283F83C20012300E000231846D1
:101EB0000C37BD4680BC704780B586B000AF7860F7
:101EC00000233B617B681B6803F00103002B00F0DB
:101ED0008780924B5B6803F00C03042B0CD08F4B74
:101EE0005B6803F00C03082B12D18C4B5B6803F486
:101EF0008033B3F5803F0BD1884B1B6803F400336C
:101F0000002B6CD07B685B68002B68D101232DE22D
:101F10007B685B68B3F5803F06D1804A7F4B1B68C6
:101F200043F4803313602EE07B685B68002B0CD198
:101F30007A4A7A4B1B6823F480331360774A774BD5
:101F40001B6823F4802313601DE07B685B68B3F596
:101F5000A02F0CD1714A714B1B6843F4802313608E
:101F60006E4A6E4B1B6843F4803313600BE06B4A80
:101F70006A4B1B6823F480331360684A674B1B6805
:101F800023F4802313607B685B68002B13D0FFF77A
:101F90008DF8386108E0FFF789F802463B69D31AEB
:101FA000642B01D90323E1E15C4B1B6803F400338C
:101FB000002BF0D014E0FFF779F8386108E0FFF764
:101FC00075F802463B69D31A642B01D90323CDE18E
:101FD000524B1B6803F40033002BF0D100E000BF2C
:101FE0007B681B6803F00203002B63D04B4B5B68DC
:101FF00003F00C03002B0BD0484B5B6803F00C0381
:10200000082B1CD1454B5B6803F48033002B16D1A1
:10201000424B1B6803F00203002B05D07B681B6951
:10202000012B01D00123A1E13C493C4B1B6823F06B
:10203000F8027B685B69DB0013430B603AE07B6866
:102040001B69002B20D0364B01221A60FFF72EF8B7
:10205000386108E0FFF72AF802463B69D31A022BE1
:1020600001D9032382E12D4B1B6803F00203002BEF
:10207000F0D02A49294B1B6823F0F8027B685B6982
:10208000DB0013430B6015E0254B00221A60FFF7BD
:102090000DF8386108E0FFF709F802463B69D31AEA
:1020A000022B01D9032361E11C4B1B6803F00203DF
:1020B000002BF0D17B681B6803F00803002B39D09C
:1020C0007B689B69002B19D0164B01221A60FEF722
:1020D000EDFF386108E0FEF7E9FF02463B69D31ADD
:1020E000022B01D9032341E10C4B5B6A03F002038D
:1020F000002BF0D0012000F0E3FA1BE0094B002296
:102100001A60FEF7D3FF38610EE0FEF7CFFF0246FC
:102110003B69D31A022B07D9032327E100100240A1
:102120000000424280044242924B5B6A03F0020389
:10213000002BEAD17B681B6803F00403002B00F03E
:10214000A6800023FB758B4BDB6903F08053002BCB
:102150000DD1884A874BDB6943F08053D361854BAF
:10216000DB6903F08053FB60FB680123FB75824B46
:102170001B6803F48073002B18D17F4A7E4B1B68C9
:1021800043F480731360FEF791FF386108E0FEF7B7
:102190008DFF02463B69D31A642B01D90323E5E086
:1021A000754B1B6803F48073002BF0D07B68DB68F1
:1021B000012B06D16F4A6F4B1B6A43F00103136278
:1021C0002DE07B68DB68002B0CD16A4A694B1B6AE7
:1021D00023F001031362674A664B1B6A23F0040372
:1021E00013621CE07B68DB68052B0CD1614A614BF4
:1021F0001B6A43F0040313625E4A5E4B1B6A43F0A2
:10220000010313620BE05B4A5A4B1B6A23F0010384
:102210001362584A574B1B6A23F0040313627B680E
:10222000DB68002B15D0FEF741FF38610AE0FEF7AE
:102230003DFF02463B69D31A41F28832934201D9ED
:10224000032393E04B4B1B6A03F00203002BEED0F9
:1022500014E0FEF72BFF38610AE0FEF727FF024685
:102260003B69D31A41F28832934201D903237DE0BE
:10227000404B1B6A03F00203002BEED1FB7D012BC8
:1022800005D13C4A3B4BDB6923F08053D3617B682B
:10229000DB69002B69D0374B5B6803F00C03082B1C
:1022A00061D07B68DB69022B46D1344B00221A6077
:1022B000FEF7FCFE386108E0FEF7F8FE02463B69D7
:1022C000D31A022B01D9032350E02A4B1B6803F0D9
:1022D0000073002BF0D17B681B6AB3F5803F08D1F7
:1022E0002449244B5B6823F400327B689B681343CA
:1022F0004B6020481F4B5B6823F474127B68196A9B
:102300007B685B6A0B43134343601C4B01221A60DA
:10231000FEF7CCFE386108E0FEF7C8FE02463B69D6
:10232000D31A022B01D9032320E0124B1B6803F0C0
:102330000073002BF0D018E0104B00221A60FEF75B
:10234000B5FE386108E0FEF7B1FE02463B69D31ADC
:10235000022B01D9032309E0064B1B6803F000732D
:10236000002BF0D101E0012300E0002318461837CC
:10237000BD4680BD00100240007000406000424237
:1023800080B584B000AF786039600023FB607E4B7D
:102390001B6803F007023B689A4210D27A497A4BD5
:1023A0001B6823F007023B6813430B60764B1B68E6
:1023B00003F007023B689A4201D00123E0E07B680A
:1023C0001B6803F00203002B20D07B681B6803F01E
:1023D0000403002B05D06D4A6C4B5B6843F4E0634B
:1023E00053607B681B6803F00803002B05D0674A25
:1023F000664B5B6843F4605353606449634B5B68AE
:1024000023F0F0027B689B6813434B607B681B687A
:1024100003F00103002B6AD07B685B68012B07D1B6
:102420005A4B1B6803F40033002B15D10123A7E09E
:102430007B685B68022B07D1544B1B6803F0007369
:10244000002B09D101239BE0504B1B6803F00203D2
:10245000002B01D1012393E04C494C4B5B6823F0E6
:1024600003027B685B6813434B60FEF71FFEF86056
:102470007B685B68012B12D10AE0FEF717FE02466B
:10248000FB68D31A41F28832934201D9032377E0E3
:102490003E4B5B6803F00C03042BEED127E07B6816
:1024A0005B68022B1DD10AE0FEF700FE0246FB68C6
:1024B000D31A41F28832934201D9032360E0334BAF
:1024C0005B6803F00C03082BEED110E0FEF7EEFD85
:1024D0000246FB68D31A41F28832934201D90323A2
:1024E0004EE02A4B5B6803F00C03002BEED1264B29
:1024F0001B6803F007023B689A4210D92249224B1D
:102500001B6823F007023B6813430B601E4B1B68DC
:1025100003F007023B689A4201D0012330E07B6858
:102520001B6803F00403002B08D01849174B5B68A5
:1025300023F4E0627B68DB6813434B607B681B68B5
:1025400003F00803002B09D01049104B5B6823F4FB
:1025500060527B681B69DB0013434B6000F01CF882
:1025600001460A4B5B681B0903F00F03084AD35C62
:1025700021FA03F3074A13600020FEF755FD0023FC
:1025800018461037BD4680BD0020024000100240B2
:102590003C6000080800002090B48AB000AF2A4BCD
:1025A0003C1D0FCB84E80F00284B1B883B80002389
:1025B000FB610023BB6100237B6200237B6100235E
:1025C0003B62234B5B68FB61FB6903F00C03042B4C
:1025D00002D0082B03D02DE01E4B3B622DE0FB699F
:1025E0009B0C03F00F0307F12802134413F8243C5B
:1025F0007B61FB6903F48033002B13D0144B5B68C1
:102600005B0C03F0010307F12802134413F8283C84
:10261000BB617B690F4A02FB03F2BB69B2FBF3F3B8
:102620007B6204E07B690C4A02FB03F37B627B6AFA
:102630003B6202E0074B3B6200BF3B6A184628370B
:10264000BD4690BC704700BFC05D0008D05D00086B
:102650000010024000127A0000093D0080B400AF73
:10266000024B1B681846BD4680BC7047080000201E
:1026700080B500AFFFF7F2FF0146054B5B681B0A10
:1026800003F00703034AD35C21FA03F3184680BD25
:10269000001002404C60000880B500AFFFF7DEFF7D
:1026A0000146054B5B68DB0A03F00703034AD35C72
:1026B00021FA03F3184680BD001002404C60000868
:1026C00080B485B000AF78600A4B1B680A4AA2FB51
:1026D00003235B0A7A6802FB03F3FB6000BFFB681D
:1026E0005A1EFA60002BF9D100BF1437BD4680BCDA
:1026F000704700BF08000020D34D621080B582B043
:1027000000AF78607B68002B01D101231DE07B685E
:1027100093F83D30DBB2002B06D17B68002283F8B2
:102720003C20786801F002FE7B68022283F83D209D
:102730007B681A687B6804331946104600F02AFA51
:102740007B68012283F83D20002318460837BD46E8
:1027500080BD80B483B000AF78607B681B687A6806
:102760001268D26842F00102DA607B681B687A68FE
:102770001268126842F001021A60002318460C37F2
:10278000BD4680BC704780B582B000AF78607B6882
:102790001B681B6903F00203022B22D17B681B68B4
:1027A000DB6803F00203022B1BD17B681B686FF010
:1027B00002021A617B6801221A777B681B689B6999
:1027C00003F00303002B03D0786800F0C8F905E09C
:1027D000786800F0BBF9786800F0CAF97B680022DD
:1027E0001A777B681B681B6903F00403042B22D152
:1027F0007B681B68DB6803F00403042B1BD17B6838
:102800001B686FF004021A617B6802221A777B68EA
:102810001B689B6903F44073002B03D0786800F0B9
:102820009EF905E0786800F091F9786800F0A0F969
:102830007B6800221A777B681B681B6903F008031A
:10284000082B22D17B681B68DB6803F00803082B88
:102850001BD17B681B686FF008021A617B68042239
:102860001A777B681B68DB6903F00303002B03D036
:10287000786800F074F905E0786800F067F9786826
:1028800000F076F97B6800221A777B681B681B6969
:1028900003F01003102B22D17B681B68DB6803F068
:1028A0001003102B1BD17B681B686FF010021A619C
:1028B0007B6808221A777B681B68DB6903F4407326
:1028C000002B03D0786800F04AF905E0786800F042
:1028D0003DF9786800F04CF97B6800221A777B6834
:1028E0001B681B6903F00103012B0ED17B681B6879
:1028F000DB6803F00103012B07D17B681B686FF0D5
:1029000001021A61786800F0FFFE7B681B681B6992
:1029100003F08003802B0ED17B681B68DB6803F01B
:102920008003802B07D17B681B686FF080021A61DF
:10293000786800F087FA7B681B681B6903F0400326
:10294000402B0ED17B681B68DB6803F04003402BF3
:1029500007D17B681B686FF040021A61786800F04D
:1029600010F97B681B681B6903F02003202B0ED134
:102970007B681B68DB6803F02003202B07D17B6892
:102980001B686FF020021A61786800F052FA00BFED
:102990000837BD4680BD80B584B000AF786039602F
:1029A0000023FB607B6893F83C30012B01D10223AC
:1029B000C8E07B68012283F83C207B68022283F810
:1029C0003D207B681B689B68FB60FB6823F07703F6
:1029D000FB60FB6823F47F43FB607B681B68FA683D
:1029E0009A603B681B68402B77D0402B0ED8102B89
:1029F00000F08A80102B02D8002B7ED099E0202B8B
:102A000000F08980302B00F08D8092E0702B16D082
:102A1000702B04D8502B40D0602B4ED089E0B3F5FA
:102A2000805F03D0B3F5005F24D082E07B681B6831
:102A30007A681268926822F007029A6079E07B68EF
:102A400018683B6899683B685A683B68DB6800F027
:102A50008BF97B681B689B68FB60FB6823F077033E
:102A6000FB60FB6843F07703FB607B681B68FA68D8
:102A70009A605EE07B6818683B6899683B685A68B2
:102A80003B68DB6800F070F97B681B687A68126845
:102A9000926842F480429A604BE07B6818683B6819
:102AA00059683B68DB681A4600F0DAF87B681B68F7
:102AB0005021184600F039F93BE07B6818683B6804
:102AC00059683B68DB681A4600F0FCF87B681B68B5
:102AD0006021184600F029F92BE07B6818683B68F4
:102AE00059683B68DB681A4600F0BAF87B681B68D7
:102AF0004021184600F019F91BE07B681B68002193
:102B0000184600F012F914E07B681B681021184683
:102B100000F00BF90DE07B681B682021184600F0DF
:102B200004F906E07B681B683021184600F0FDF8C8
:102B300000BF7B68012283F83D207B68002283F878
:102B40003C20002318461037BD4680BD80B483B0BA
:102B500000AF786000BF0C37BD4680BC704780B4C2
:102B600083B000AF786000BF0C37BD4680BC7047B3
:102B700080B483B000AF786000BF0C37BD4680BC26
:102B8000704780B483B000AF786000BF0C37BD469B
:102B900080BC704780B485B000AF78603960002396
:102BA000FB607B681B68FB607B682A4A93420BD002
:102BB0007B68B3F1804F07D07B68274A934203D0EC
:102BC0007B68264A934208D1FB6823F07003FB60C0
:102BD0003B685B68FA681343FB607B681D4A93425D
:102BE0000BD07B68B3F1804F07D07B681A4A9342C1
:102BF00003D07B68194A934208D1FB6823F44073E1
:102C0000FB603B68DB68FA681343FB60FB6823F0FA
:102C10008003FB603B685B69FA681343FB607B6879
:102C2000FA681A603B689A687B68DA623B681A68DF
:102C30007B689A627B68074A934203D13B681A69B2
:102C40007B681A637B6801225A6100BF1437BD4656
:102C500080BC7047002C0140000400400008004088
:102C600080B487B000AFF860B9607A6000237B6100
:102C700000233B61FB681B6A3B61FB681B6A23F016
:102C80000102FB681A62FB689B697B617B6923F028
:102C9000F0037B617B681B017A6913437B613B69AD
:102CA00023F00A033B613A69BB6813433B61FB684D
:102CB0007A699A61FB683A691A6200BF1C37BD469F
:102CC00080BC704780B487B000AFF860B9607A60AC
:102CD00000237B6100233B61FB681B6A23F0100229
:102CE000FB681A62FB689B697B61FB681B6A3B613E
:102CF0007B6923F470437B617B681B037A69134310
:102D00007B613B6923F0A0033B61BB681B013A690F
:102D100013433B61FB687A699A61FB683A691A62FE
:102D200000BF1C37BD4680BC704780B485B000AF83
:102D300078600B467B800023FB607B689B68FB60B0
:102D4000FB6823F07003FB607B8843F007039BB2B2
:102D50001A46FB681343FB607B68FA689A6000BF01
:102D60001437BD4680BC704780B487B000AFF860B0
:102D7000B9607A603B6000237B61FB689B687B6184
:102D80007B6923F47F437B613B681A027B681A43AB
:102D9000BB6813437A6913437B61FB687A699A6065
:102DA00000BF1C37BD4680BC704780B483B000AF05
:102DB000786039607B6893F83C30012B01D10223A5
:102DC00032E07B68012283F83C207B68022283F892
:102DD0003D207B681B687A681268526822F0700296
:102DE0005A607B681B687A68126851683A68126892
:102DF0000A435A607B681B687A681268926822F0FE
:102E000080029A607B681B687A68126891683A68E9
:102E100052680A439A607B68012283F83D207B68F0
:102E2000002283F83C20002318460C37BD4680BCA6
:102E3000704780B483B000AF786000BF0C37BD46E8
:102E400080BC704780B483B000AF786000BF0C379F
:102E5000BD4680BC704780B582B000AF78607B68AB
:102E6000002B01D101233FE07B6893F83930DBB2BE
:102E7000002B06D17B68002283F83820786801F0A7
:102E800079FA7B68242283F839207B681B687A688A
:102E90001268D26822F40052DA60786800F028F8EC
:102EA0007B681B687A681268126922F490421A6182
:102EB0007B681B687A681268526922F02A025A619C
:102EC0007B681B687A681268D26842F40052DA6044
:102ED0007B680022DA637B68202283F839207B68D4
:102EE000202283F83A20002318460837BD4680BDCB
:102EF000F0B585B000AF78600023FB607B681B688D
:102F00007A681268126922F440517A68D2680A43DA
:102F10001A617B689A687B681B691A437B685B69E6
:102F20001343FA681343FB607B681A687B681B686D
:102F3000DB6823F4B05323F00C03F9680B43D36030
:102F40007B681B687A681268526922F440717A685B
:102F500092690A435A617B681B686F4A93426BD13E
:102F60007B681C68FFF798FB024613469B001344DE
:102F70009A001A447B685B689B00B2FBF3F3674AD4
:102F8000A2FB03235B091D01FFF786FB02461346E4
:102F90009B0013449A001A447B685B689B00B2FB59
:102FA000F3F6FFF779FB024613469B0013449A00A1
:102FB0001A447B685B689B00B2FBF3F3574AA2FBA1
:102FC00003235B09642202FB03F3F31A1B01323370
:102FD000524AA2FB03235B0903F0F0031D44FFF7F1
:102FE0005BFB024613469B0013449A001A447B681D
:102FF0005B689B00B2FBF3F6FFF74EFB02461346FD
:103000009B0013449A001A447B685B689B00B2FBE8
:10301000F3F3424AA2FB03235B09642202FB03F39E
:10302000F31A1B0132333D4AA2FB03235B0903F071
:103030000F032B44A3606AE07B681C68FFF718FB52
:10304000024613469B0013449A001A447B685B684F
:103050009B00B2FBF3F3314AA2FB03235B091D0182
:10306000FFF706FB024613469B0013449A001A44DE
:103070007B685B689B00B2FBF3F6FFF7F9FA024648
:1030800013469B0013449A001A447B685B689B00BC
:10309000B2FBF3F3214AA2FB03235B09642202FB88
:1030A00003F3F31A1B0132331C4AA2FB03235B090F
:1030B00003F0F0031D44FFF7DBFA024613469B00C2
:1030C00013449A001A447B685B689B00B2FBF3F6DA
:1030D000FFF7CEFA024613469B0013449A001A44A7
:1030E0007B685B689B00B2FBF3F30C4AA2FB0323F3
:1030F0005B09642202FB03F3F31A1B013233074A14
:10310000A2FB03235B0903F00F032B44A36000BF62
:103110001437BD46F0BD00BF003801401F85EB519C
:1031200080B483B000AF0346FB71274BB3F8063180
:103130009BB2002B04D1FB797E2B01D100233EE012
:10314000224B1B7883F00103DBB2002B07D0FB7905
:103150007D2B04D11D4B01221A7000232FE01B4B45
:103160001B7883F00103DBB2002B04D0FB797E2BAC
:1031700001D1012323E0144BB3F806319BB2FF2B9E
:1031800008D9114B0022A3F80621104B00221A7017
:10319000002314E00C4BB3F806319BB25A1C91B2D9
:1031A000094AA2F806111946074AFB795354074BFE
:1031B0001B78002B02D0054B00221A700023184602
:1031C0000C37BD4680BC7047D4000020A60000200C
:1031D00080B584B000AF78607B68B3F806319BB2ED
:1031E000032B01D800233DE07B681B780A2B01D01C
:1031F000002337E07B68DB781A467B68B3F806313A
:103200009BB2063B9A4201D000232BE07B68B3F8C7
:1032100006319BB2023B7A68D35C1B021AB27B6810
:10322000B3F806319BB2013B7968CB5C1BB2134308
:103230001BB2FB817A687B68DB789BB204339BB25C
:103240001946104600F0A8FC03461A467B68A3F80E
:1032500004217B68B3F80431FA899A4201D0002333
:1032600000E0012318461037BD4680BD80B584B00C
:1032700000AF7860002000F033FD022000F054FD24
:1032800000217E2000F0FCFC0023FB8109E0FB898B
:103290007A68D35C0121184600F0F2FCFB89013307
:1032A000FB81FA897B68DB7804339A42EFDB7B6829
:1032B000B3F804311B0A9BB2DBB20121184600F0BF
:1032C000DFFC7B68B3F80431DBB20121184600F063
:1032D000D7FC00217E2000F0D3FC022000F024FD6A
:1032E000012000F0FDFC00BF1037BD4680BD80B559
:1032F00084B000AF78607B681B78FB737B685A787A
:103300007B681A707B68FA7B5A707B6801221A719D
:103310007B680122DA707A687B68DB789BB20433C1
:103320009BB21946104600F037FC03461A467B68EC
:10333000A3F804217868FFF799FF00BF1037BD4656
:1033400080BD000080B588B000AF786007F1080349
:1033500000221A605A609A60DA601A617B681B78F2
:10336000FB777B685A787B681A707B68FA7F5A70A3
:103370007B68043308222021184601F098F97B6805
:10338000043330491A460B4603CB106051607B680A
:103390001622DA7007F108031846FCF7D9FE034637
:1033A0001A4607F10803134426491A460B4603CB75
:1033B000106051601B78137207F108031846FCF780
:1033C000C7FE03461A4607F1080313441E491A466E
:1033D0000B4603CB106051601B7813727B6804337B
:1033E00007F108011022184601F056F97B68002207
:1033F0001A757B6800225A757B6800229A757B6873
:103400000122DA757B6801221A767B6803225A76DC
:103410007A687B68DB789BB204339BB2194610460E
:1034200000F0BAFB03461A467B68A3F80421074B59
:1034300001221A707868FFF719FF00BF2037BD46D8
:1034400080BD00BFD45D0008E05D0008D100002011
:1034500080B584B000AF78607B681B78FB737B68B5
:103460005A787B681A707B68FA7B5A707B680B22EB
:10347000DA707B689B78102B10D17B6804330922AB
:103480002D49184601F008F97B6802221A737B68FF
:1034900029225A737B6802229A7336E07B689B78F4
:1034A000112B17D17B68043308222021184601F024
:1034B000FEF87B68043308222049184601F0FFF823
:1034C0007B6800221A737B68FB225A737B68002298
:1034D0009A731AE07B689B78122B16D17B680433B1
:1034E00008222021184601F0E2F87B680433082204
:1034F0001349184601F0E3F87B6808221A737B68C9
:1035000029225A737B6800229A737A687B68DB7879
:103510009BB204339BB21946104600F03DFB0346B4
:103520001A467B68A3F804217868FFF79FFE00BF66
:103530001037BD4680BD00BFEC5D0008F85D000897
:10354000005E000880B584B000AF78607B681A78B0
:10355000304B1A707B685A787B681A702D4B1B7839
:10356000DAB27B685A707B689B78302B14D17B6809
:103570000322DA707B6802221A71274B1B889BB2E8
:103580001B0A9BB2DAB27B685A71234B1B889BB231
:10359000DAB27B689A7127E07B689B78312B0BD17C
:1035A0007B680222DA707B6800221A711B4B1B7841
:1035B000DAB27B685A7117E07B689B78322B13D1A3
:1035C0007B680522DA707B680433FB6007F10C032B
:1035D0001946082000F086FA114B1B6807F10C020F
:1035E0001146184600F0C3FA7A687B68DB789BB214
:1035F00004339BB21946104600F0CEFA03461A4631
:103600007B68A3F804217868FFF730FE00BF10370D
:10361000BD4680BDE001002094000020A4000020F1
:103620009000002080B582B000AF78607B681A7887
:103630001B4B1A707B685A787B681A70184B1B7882
:10364000DAB27B685A707B680022DA707B689B78FC
:10365000502B0ED17B6802221A717B685B791B02AA
:103660001AB27B689B791BB213431BB29AB20D4B03
:103670001A807A687B68DB789BB204339BB2194668
:10368000104600F089FA03461A467B68A3F8042125
:103690007868FFF7EBFD00BF0837BD4680BD00BF6F
:1036A000E00100209400002080B582B000AF786077
:1036B0007B689B78122B06DC102B14DA002B0AD0C7
:1036C000012B0CD01BE0302B19DB322B0FDD503BD4
:1036D000022B14D80FE07868FFF709FE10E0786835
:1036E000FFF730FE0CE07868FFF7B2FE08E078687C
:1036F000FFF728FF04E07868FFF794FF00E000BFC1
:1037000000BF0837BD4680BD90B585B000AF78607A
:103710007B68314A93423ED14FF480512F48FDF7E8
:103720007FFF0346FB732E4B1B78DBB2FA7B9A427A
:1037300007D12C4B1B78DBB20133DAB2294B1A705C
:1037400046E0FB7B012B0BD14FF480612648FDF74F
:1037500096FF264B1B889BB201339AB2234B1A80EB
:103760001F4AFB7B1370224B224A1A601D4B1B78A9
:10377000DAB21F4B1C6813461846FDF725FA0346BC
:1037800019462046FDF728FB03461A46184B1A60D7
:10379000144B00221A70154B1B889BB21846FDF77C
:1037A0000FFA0246144B1A60134B1B681349184654
:1037B000FDF712FB03461A460F4B1A600E4B1B68AF
:1037C0000F491846FDF708FB03461A460A4B1A60D4
:1037D0001437BD4690BD00BF38020020000C0140E8
:1037E000D00000208E000020000801408C00002046
:1037F000CC00002000007A44900000200000F0403F
:103800000000704280B483B000AF0346FB71044AED
:10381000FB79137000BF0C37BD4680BC704700BFFA
:10382000D200002080B400AF034B1B78DBB21846F7
:10383000BD4680BC704700BFD200002080B500AFFD
:10384000154B0022A3F806210020FFF7DBFF012023
:1038500000F046FA00F074FA00F0F4FA012000F0EB
:1038600091FA4FF4FA70FDF72BFC802000F08AFAF1
:103870000A4800F0F7FA40F6B830FDF721FC0120C5
:1038800000F080FA4FF4FA70FDF71AFC044B0122A5
:103890001A7000BF80BD00BFD4000020085E000881
:1038A000A500002080B500AF154B1B681846FCF73B
:1038B000BBFD144B042200F087FE134B1B889BB208
:1038C0000A221249184600F0E5FE802000F05AFA5C
:1038D0000F4800F0C7FA8B2000F054FA094800F0B6
:1038E000C1FAC02000F04EFA0A4800F0BBFAC4202A
:1038F00000F048FA054800F0B5FA00BF80BD00BFEF
:1039000090000020BC00002094000020C000002097
:103910001C5E0008305E000880B500AF0C4B1B78C1
:10392000DBB283F00103DBB2002B0FD1094B1B6824
:103930000133084A1360074B1B68B3F57A7F06D33F
:10394000044B00221A60FFF7ADFF00E000BF80BD0E
:10395000A5000020A800002080B582B000AF03467B
:10396000FB80FB88012B14D1FDF7A0FB0246244B02
:103970001B68D31AFA2B3ED9224B1B889BB201330A
:103980009AB2204B1A80FDF791FB02461C4B1A603D
:1039900031E0FB88802B14D1FDF788FB02461A4BDF
:1039A0001B68D31AFA2B26D9164B1B889BB2013BF6
:1039B0009AB2144B1A80FDF779FB0246124B1A603B
:1039C00019E0FB88B3F5006F15D1FDF76FFB0246D8
:1039D0000E4B1B68D31AFA2B0DD901224FF48061CC
:1039E0000B48FDF734FE0B4B01221A70FDF75EFB0E
:1039F0000246064B1A6000BF0837BD4680BD00BFB7
:103A000098000020940000209C000020A0000020CE
:103A1000000C0140A400002080B500AF234B1B78B0
:103A2000DBB2012B2AD1224B1B889BB21846FDF733
:103A3000CBF802461F4B1B6819461046FDF7B6FA35
:103A40000346002B1AD000224FF480611A48FDF77C
:103A5000FEFD1A4B00221A80154B00221A80184BCB
:103A600000221A70164B00225A70154B00229A70D1
:103A7000134B0022DA70124B00221A71FFF7D2FEAC
:103A80000346002B0FD00F48FFF7A2FB0346002B85
:103A900002D00C48FFF708FE0020FFF7B3FE094BE9
:103AA0000022A3F8062100BF80BD00BFA4000020B3
:103AB0009400002090000020000C01408C000020A9
:103AC000C0000020D400002080B483B000AF0346C3
:103AD0003960FB713B68FA791A7000BF0C37BD463C
:103AE00080BC704780B582B000AF03463960FB717F
:103AF0003B681A68FB7911461846FFF7E5FF3B68FB
:103B00001B685A1C3B681A6000BF0837BD4680BD61
:103B100080B483B000AF786039603B6803337A6863
:103B2000D2B21A703B6802337A68120AD2B21A70A3
:103B30003B6801337A68120CD2B21A707B681B0E94
:103B4000DAB23B681A7000BF0C37BD4680BC7047C4
:103B500080B582B000AF786039603B1D1B68396862
:103B60001846FFF7D5FF00BF0837BD4680BD80B5BA
:103B700082B000AF786039603B681B68194678688E
:103B8000FFF7E6FF3B681B681A1D3B681A6000BF21
:103B90000837BD4680BD000080B485B000AF7860B6
:103BA0000B467B80FF23FB73FF23BB7313E07B6813
:103BB0005A1C7A601A78BB7B5340DBB2BB600F4A59
:103BC000BB6813441A78FB7B5340BB730C4ABB6839
:103BD00013441B78FB737B885A1E7A80002BE6D136
:103BE000FB7B1B021AB2BB7B1BB213431BB29BB203
:103BF00018461437BD4680BC704700BF3C5E0008C5
:103C00003C5F000880B584B000AF78600023BB73D0
:103C10001A4B1B681B68BB6007E0184B1B681B68CE
:103C2000BB60164B1B685B68FB73BB6803F00F033C
:103C3000002BF2D1BB6803F02003002B05D00F4B03
:103C40001B685B68FB730123BB73BB7B002B11D02C
:103C5000FFF7E8FD034683F00103DBB2002B09D038
:103C6000FB7B1846FFF75CFA0346002B02D00120CD
:103C7000FFF7C8FD00BF1037BD4680BD78020020A9
:103C800080B483B000AF03460A46FB711346BB7194
:103C900000BF124B1B681B6803F08003002BF8D099
:103CA000BB79002B11D0FB797E2B02D0FB797D2BC9
:103CB0000BD10A4B1B687D225A6000BF074B1B6863
:103CC0001B6803F08003002BF8D0044B1B68FA79C3
:103CD0005A6000BF0C37BD4680BC70477802002098
:103CE00080B582B000AF0346FB71FB79002B0AD090
:103CF000002220210B48FDF7AAFC002210210948D0
:103D0000FDF7A5FC09E0012220210648FDF79FFCF4
:103D1000012210210348FDF79AFC00BF0837BD4679
:103D200080BD00BF0008014080B582B000AF786060
:103D30007868FDF7C5F900BF0837BD4680BD0000B3
:103D400080B500AF0E4B1B680D4A1268526942F0F5
:103D500001025A610A4B1B68094A1268D26842F490
:103D60009072DA60002201212620FDF7B6FA2620A3
:103D7000FDF7CFFA2620FDF7E6FA00BF80BD00BFB1
:103D80007802002080B586B002AF0346FB71FB7954
:103D900023F00F03FB73FB791B01BB73FB7B43F029
:103DA0000C03DBB23B72FB7B43F00803DBB27B729C
:103DB000BB7B43F00C03DBB2BB72BB7B43F008035D
:103DC000DBB2FB7207F108026423009304234E2147
:103DD0000348FDF781FD00BF1037BD4680BD00BF21
:103DE000E401002080B586B002AF0346FB71FB7989
:103DF00023F00F03FB73FB791B01BB73FB7B43F0C9
:103E00000D03DBB23B72FB7B43F00903DBB27B7239
:103E1000BB7B43F00D03DBB2BB72BB7B43F00903FA
:103E2000DBB2FB7207F108026423009304234E21E6
:103E30000348FDF751FD00BF1037BD4680BD00BFF0
:103E4000E401002080B500AF0220FFF79BFF28208F
:103E5000FFF798FF0C20FFF795FF8020FFF792FFF8
:103E600000BF80BD80B582B000AF786006E07B689F
:103E70005A1C7A601B781846FFF7B4FF7B681B78E2
:103E8000002BF4D100BF0837BD4680BD80B500AF20
:103E9000FDF7B4F800F012F800F0FAF800F0CEF8F0
:103EA00000F080F800F050F80348FEF752FCFFF7EE
:103EB000C5FCFFF7B1FDFCE73802002080B590B0EB
:103EC00000AF07F1180328220021184600F0EFFB8D
:103ED0003B1D00221A605A609A60DA601A61012361
:103EE000BB614FF48033FB6100233B620123BB6263
:103EF00002237B634FF48033BB634FF4E013FB6317
:103F000007F118031846FDF7D7FF0346002B01D031
:103F100000F084F90F237B600223BB600023FB6069
:103F20004FF480633B6100237B613B1D02211846F7
:103F3000FEF726FA0346002B01D000F06FF900BF10
:103F40004037BD4680BD000080B500AF134B144A1A
:103F50001A60124B4CF250325A60104B00229A6099
:103F60000E4B0022DA600D4B4FF480421A610B4B6E
:103F700000225A61094B00229A61084B0022DA6143
:103F8000064B00221A620548FDF7A2FB0346002BF0
:103F900001D000F043F900BF80BD00BFE401002064
:103FA0000054004080B586B000AF07F1080300223E
:103FB0001A605A609A60DA603B4600221A605A60C2
:103FC0001D4B4FF080421A601B4B47225A601A4B20
:103FD00000229A60184B40F2E732DA60164B00225A
:103FE0001A61154B00229A611348FEF787FB0346BE
:103FF000002B01D000F012F94FF48053BB6007F1A1
:10400000080319460C48FEF7C6FC0346002B01D0F6
:1040100000F004F900233B6000237B603B46194617
:104020000548FEF7C2FE0346002B01D000F0F6F86B
:1040300000BF1837BD4680BD3802002080B500AFF4
:10404000114B124A1A60104B4FF416525A600E4B25
:1040500000229A600C4B0022DA600B4B00221A619E
:10406000094B0C225A61084B00229A61064B002230
:10407000DA610548FEF7EFFE0346002B01D000F0A1
:10408000CDF800BF80BD00BF780200200044004092
:1040900080B588B000AF07F1100300221A605A60A3
:1040A0009A60DA60584A584B9B6943F01003936159
:1040B000554B9B6903F01003FB60FB68524A524B5F
:1040C0009B6943F0200393614F4B9B6903F02003EE
:1040D000BB60BB684C4A4C4B9B6943F00403936143
:1040E000494B9B6903F004037B607B68464A464B5F
:1040F0009B6943F008039361434B9B6903F00803FA
:104100003B603B6800224FF400514048FDF79FFAA6
:1041100000224FF486613E48FDF799FA00224FF4E1
:1041200080613C48FDF793FA4FF400533B61012353
:104130007B610023BB610223FB6107F11003194679
:104140003248FDF70FF901233B6100237B61012316
:10415000BB6107F1100319462D48FDF703F94FF431
:1041600086633B6101237B610023BB610223FB610A
:1041700007F1100319462648FDF7F4F840F68103CD
:104180003B61254B7B610023BB6107F1100319469E
:104190002048FDF7E7F84FF480633B6101237B6122
:1041A0000023BB610223FB6107F110031946194884
:1041B000FDF7D8F84FF480533B6100237B61002367
:1041C000BB6107F1100319461248FDF7CBF8002236
:1041D00004210620FDF781F80620FDF79AF8002259
:1041E00004211720FDF779F81720FDF792F8002237
:1041F00003212820FDF771F82820FDF78AF800BF79
:104200002037BD4680BD00BF0010024000100140B5
:1042100000080140000C01400000211080B400AFF4
:1042200000BFBD4680BC704780B485B000AF154A62
:10423000144B9B6943F001039361124B9B6903F09C
:104240000103BB60BB680F4A0E4BDB6943F0805330
:10425000D3610C4BDB6903F080537B607B680A4BB6
:104260005B68FB60FB6823F0E063FB60FB6843F086
:104270000073FB60044AFB68536000BF1437BD46FF
:1042800080BC7047001002400000014080B58AB039
:1042900000AF786007F1140300221A605A609A6038
:1042A000DA607B681B681D4A934232D11C4A1C4B62
:1042B0009B6943F008039361194B9B6903F0080362
:1042C0003B613B694FF440737B611223BB61032365
:1042D0003B6207F1140319461248FDF743F8124BED
:1042E0005B687B627B6A43F0E0637B627B6A43F0DE
:1042F00002037B620C4A7B6A5360094A084BDB6904
:1043000043F40013D361064BDB6903F40013FB6035
:10431000FB6800BF2837BD4680BD00BF0054004089
:1043200000100240000C01400000014080B584B044
:1043300000AF78607B681B68B3F1804F13D10C4AE3
:104340000B4BDB6943F00103D361094BDB6903F0DD
:104350000103FB60FB68002202211C20FCF7BDFF6B
:104360001C20FCF7D6FF00BF1037BD4680BD00BF44
:104370000010024080B588B000AF786007F11003EC
:1043800000221A605A609A60DA607B681B681F4AD4
:10439000934237D11E4A1E4BDB6943F40033D3618D
:1043A0001B4BDB6903F40033FB60FB68184A184BB6
:1043B0009B6943F004039361154B9B6903F004036D
:1043C000BB60BB6804233B6102237B610323FB6169
:1043D00007F1100319460F48FCF7C4FF08233B619F
:1043E00000237B610023BB6107F1100319460948D4
:1043F000FCF7B8FF002201212620FCF76EFF2620E3
:10440000FCF787FF00BF2037BD4680BD0044004059
:10441000001002400008014080B400AF00BFBD465C
:1044200080BC704780B400AFFEE780B400AFFEE709
:1044300080B400AFFEE780B400AFFEE780B400AF09
:1044400000BFBD4680BC704780B400AF00BFBD4612
:1044500080BC704780B400AF00BFBD4680BC7047D1
:1044600080B500AFFCF710FEFFF756FA00BF80BD25
:1044700080B500AF0120FDF713F900BF80BD80B506
:1044800000AF8020FDF70CF900BF80BD80B500AF04
:104490000248FEF778F900BF80BD00BF3802002057
:1044A00080B500AFFFF7AEFB00BF80BD80B500AFA9
:1044B0004FF40060FDF7F4F800BF80BD80B584B014
:1044C00000AF7860114B1B68002B02D10F4B104AD4
:1044D0001A600E4B1B68FB600C4B1A687B68134418
:1044E0006A46934207D900F093F802460C23136002
:1044F0004FF0FF3306E0054B1A687B681344034A0C
:104500001360FB6818461037BD4680BDAC00002024
:10451000BC02002080B400AF154A154B1B6843F065
:10452000010313601249124B5A68124B13404B603F
:104530000F4A0F4B1B6823F0847323F480331360FE
:104540000B4A0B4B1B6823F480231360084A084B6B
:104550005B6823F4FE035360054B4FF41F029A601F
:10456000054B4FF000629A6000BFBD4680BC7047AB
:10457000001002400000FFF800ED00E0002103E021
:104580000B4B5B58435004310A480B4B42189A427C
:10459000F6D30A4A02E0002342F8043B084B9A4251
:1045A000F9D3FFF7B7FF00F039F8FFF76FFC70475A
:1045B00094610008000000207000002070000020BE
:1045C000BC020020FEE70000F0B51C4685B00023C9
:1045D0001546002206460F46FCF7ECF9234618B1B3
:1045E0002D22013D03F8012B002203926722074987
:1045F00002920193009532463B46086800F02CF980
:10460000002814BF2046002005B0F0BD0C0000209B
:10461000014B1868704700BF0C00002070B50025E2
:104620000C4E0D4CA41BA410A54209D101F0BAFBFD
:1046300000250A4E0A4CA41BA410A54205D170BD4A
:1046400056F8253098470135EEE756F8253098475B
:104650000135F2E78C6100088C6100088C6100086C
:1046600090610008931E222B10B50C4604D900233C
:104670001C460B70204610BD0A2A09D1002807DA13
:104680002D230B7001214042214400F02DF8F1E769
:104690000021F9E7FFF7E6BF10B5431E0A44914237
:1046A00000D110BD11F8014B03F8014FF7E70346A5
:1046B0000244934200D1704703F8011BF9E770B53B
:1046C000044602B970BD234611F8015B561E03F87B
:1046D000015B1DB91444A34203D170BD1C46324690
:1046E000EFE703F8015BF6E7F0B58BB003460F4642
:1046F0006D461C4C04F1200E2E462068616808347B
:1047000003C674453546F7D1217920683171911E71
:10471000222930604FF0000104D939700F46384625
:104720000BB0F0BD781E0646B3FBF2F502FB153365
:104730000DF1280E734413F8283C4C1C06F8013F79
:104740002B4665B93D557A18CC1AA342E7DA44786E
:104750001578013300F8015F02F80149F4E72146BA
:10476000E2E700BF54600008F0B58BB00F4608A91F
:10477000109C049107A9039109A90291611C019160
:10478000022100919DF84460129D00F02DFD42F23F
:104790000F7301460998984204D1384600F090FC06
:1047A0000BB0F0BD0B783B7045B93CB97B1C11F8E0
:1047B000012F3AB9672E0BD1652614E02E22BB1CBF
:1047C0007A70F4E7002CF5DD03F8012B013CEEE7ED
:1047D000472E3DD019463025621A1A44002A34DC8F
:1047E000002CA8BF1B19411E0029A8BF2B201A4668
:1047F000BCBF2D24C0F101000991B8BF099002F897
:10480000026BA8BF58700998B8BF5C706328114646
:104810000BDD642390FBF3F303F1300111706FF0B3
:10482000630101FB0303511C09930A23099A92FBBC
:10483000F3F303F1300008706FF0090000FB03236D
:1048400030334B7000238B70AAE701F8015BC3E79C
:104850004526C8E7000000002DE9F04316461D4636
:104860008BB081460022002330462946DDF848807F
:10487000139C159FFCF79EF808B105F10045002236
:10488000002330462946FCF78BF838B130232370DB
:104890000023637020460BB0BDE8F08350A3D3E93A
:1048A000002330462946FCF78FF868B19DF8503058
:1048B0000297019308F1FF33009332462B462146BD
:1048C0004846FFF751FFE5E7404600F061FB02462E
:1048D0000B4630462946FCF781F80028E6D1002235
:1048E000414B29463046FCF765F809A908AA07ABF1
:1048F000049103920293CDF80480E8B1032300935E
:1049000032462B46484600F06FFC42F20F73079A7E
:104910009A4213D023460178A8EB030205462244AD
:104920000130079EA1B94FF0300EB61AB01800281A
:104930003ADC79B107900DE00223E0E7014620461A
:1049400000F0BEFBA6E7013E03F8011B0796E2E775
:10495000002EF8DC0FB9297819B39C4204BF30212E
:1049600021704FF02E014FF000004FF0300E08BFC5
:10497000631C19700799013300290E4620DB00B132
:104980000791013D15F8011F09B1002A20DC47B14C
:1049900018463025111A194400291DDC002AA8BF29
:1049A0009B1800221A7075E7002AC2DD03F801EB9C
:1049B000013A0121BAE703F801EB013A0120DBE7F4
:1049C000002A01F10101F6DC0028DAD00796D8E7C9
:1049D00003F8011B013AD5E700F8015BDAE700BFF5
:1049E0002D431CEBE2361A3F0000F03F70B5456ADC
:1049F00004460E463DB9102001F0CAF960624560D8
:104A000085600560C560656AEB6883B1636ADB68D1
:104A100053F82600B8B9012101FA06F56A1D920083
:104A2000204600F0D1FA60B1466085600EE0212298
:104A30000421204600F0C8FA636AE860DB68002BB6
:104A4000E4D1002070BD026843F8262000230361F2
:104A5000C36070BD70B5446A06460D463CB910206F
:104A600001F096F97062446084600460C4603DB1F6
:104A7000736A6A68DB6853F82210296043F8225091
:104A800070BD2DE9F0411F4606460C4600230D6916
:104A900001F1140EDEF80000013381B202FB017156
:104AA000000C0F0C02FB007089B201EB00419D422B
:104AB0004FEA10474EF8041BECDCD7B1A3689D42C7
:104AC00012DB616830460131FFF790FF80462269B2
:104AD00004F10C01023292000C30FFF7DDFD21469B
:104AE0003046FFF7B7FF444604EB850301355F61AD
:104AF00025612046BDE8F081020C12040346B2B9DC
:104B00000304102013F07F4F04BF1B02083013F082
:104B1000704F04BF1B01043013F0404F04BF9B00D3
:104B20000230002B06DB5B0003D50130704700200C
:104B3000E8E7202070470368014613F007020BD016
:104B4000DA0723D4980749BF5B089B0801200B6054
:104B50005CBF0B600220704798B2A8B910201B0CF4
:104B600013F0FF0F04BF1B0A08301A0704BF1B090C
:104B700004309A0704BF9B080230DA0702D45B08AE
:104B800006D001300B6070471046E9E700207047FF
:104B90002020704710B50C460121FFF727FF0122A6
:104BA0004461026110BD2DE9F74F14460A6923697B
:104BB00089469A42BEBF0B46A1461C46D9F81070E2
:104BC000D4F810A0D9F80830D9F8041007EB0A0679
:104BD0009E42C8BF0131FFF709FF00F114052B46C3
:104BE000002205EB8608434516D304F1140209F1AF
:104BF000140102EB8A0301EB87070193019C134622
:104C000094420CD8002E03DD58F8043D002B54D0FC
:104C1000066103B0BDE8F08F43F8042BE3E7B3F877
:104C200000A00432BAF1000F20D0AE4689464FF002
:104C3000000C59F8044BBEF800B0A3B20AFB03B352
:104C40004FEA144BDEF8004063444FEA144C0AFB71
:104C50000BC404EB13449BB243EA04434F454FEAB1
:104C6000144C4EF8043BE4D8CEF800C032F8029C55
:104C7000B9F1000F1FD0AE468C464FF0000A2B68EA
:104C8000BCF80040BEF802B09BB209FB04B4A244D9
:104C900043EA0A434EF8043B5CF8043BBEF800408C
:104CA0001B0C09FB0343674503EB1A434FEA134A06
:104CB000E6D8CEF800300435A0E7013EA2E70000B8
:104CC0002DE9F843154612F0030206460F4607D0B9
:104CD000214C013A002354F82220FFF7D2FE074668
:104CE000AD1035D0746A3CB9102001F051F87062F3
:104CF000446084600460C460D6F82480D8F808401A
:104D00004CB940F271213046FFF744FF00230446BE
:104D1000C8F8080003604FF00008EB070AD53946D1
:104D200022463046FFF73FFF814639463046FFF7BF
:104D300091FE4F466D100BD0206838B922462146AF
:104D40003046FFF730FF2060C0F800800446E4E7FB
:104D50003846BDE8F88300BF706100082DE9F047D0
:104D60000C460746164623694FEA621A0AEB030906
:104D70004968A36809F10105AB4231DB3846FFF70A
:104D800035FE00228046114600F1140352452ADB0D
:104D900020692AEAEA7A04F1140116F01F0203EBF3
:104DA0008A0301EB800E22D00020C2F1200C0E6895
:104DB0009640304343F8040B51F8040B8E4520FA1B
:104DC0000CF0F4D8186008B109F10205013D38462D
:104DD000C8F810502146FFF73DFE4046BDE8F08779
:104DE00001315B00C8E743F822100132CEE7043BF3
:104DF00051F8042B8E4543F8042FF9D8E6E70369F0
:104E00000A6930B59B1A0CD1920014301431841801
:104E1000114454F8045D51F8042D954203D005D394
:104E20000123184630BDA042F3D3FAE74FF0FF3319
:104E3000F7E72DE9F0470D46074611462846144688
:104E4000FFF7DDFF061E08D131463846FFF7CEFDDD
:104E5000012346610361BDE8F087A4BF23462C46C9
:104E600038466168A6BF1D4600260126FFF7BEFD35
:104E70004FF0000CC6602B69266904F1140205F19D
:104E8000140902EB860709EB830800F1140152F8BC
:104E900004AB59F8045B1FFA8AF36344ACB21B1BE2
:104EA0002C0CC4EB1A4404EB23449BB24FEA244C71
:104EB000C84543EA0444964641F8044BE7D8BE454A
:104EC00005D351F8043D8BB10661BDE8F0875EF86B
:104ED000044BA2B26244131403EB144392B242EAAD
:104EE00003424FEA234C41F8042BE8E7013EE8E790
:104EF0002DE9F3411C4601219046089E099DFFF7CC
:104F000075FDC4F31302C4F30A54074634BB01927F
:104F1000B8F1000F27D002A840F8088DFFF70BFE6C
:104F20000099F0B1019AC0F1200302FA03F30B4398
:104F3000C2407B610192019B002B14BF0221012121
:104F4000BB613961C4B1A4F2334404443460C0F19C
:104F500035002860384602B0BDE8F08142F4801286
:104F6000D5E77961E7E701A8FFF7E5FD0121019B9E
:104F700039617B612030E5E7A0F2324007EB810325
:104F800030601869FFF7B8FDC0EB4110E1E70000A1
:104F90001728D0B5044605DC084B03EBC004D4E960
:104FA0000001D0BD002000260549064F32463B4691
:104FB000FBF78EFA013CF9D1D0BD00BFA860000814
:104FC0000000F03F0000244038B502FB01F4214608
:104FD00000F008F8054618B122460021FFF767FBEC
:104FE000284638BD70B5CD1C25F0030508350C2DBD
:104FF00038BF0C25002D064601DBA94203D90C233E
:105000003360002070BD00F0CBFE234A14682146B7
:1050100091B9224C23681BB9304600F041F820605A
:105020002946304600F03CF8431C26D10C2330467C
:10503000336000F0B6FEE4E70B685B1B1AD40B2B61
:105040000FD90B60CC18CD50304600F0AAFE04F109
:105050000B00231D20F00700C31A1BD05A42E25058
:1050600070BD8C420BBF63684B681360636018BFF0
:105070000C46E9E70C464968CAE7C41C24F003045F
:10508000A04205D0211A304600F00AF80130CDD0F8
:105090002560D9E770BD00BFB0000020B40000203B
:1050A00038B50023054C054608462360FFF706FA8D
:1050B000431C02D1236803B12B6038BDB802002025
:1050C000034611F8012B03F8012B002AF9D1704790
:1050D0002DE9F74F03690C6980469C4200F38280FA
:1050E000013C01F1140700F1140657F8245056F85A
:1050F00024000135B0FBF5F54FEA840E06EB0E03F4
:1051000007EB0E0901938DB34FF0000A3846B44601
:10511000D34650F8042B93B205FB03A3120C4FEABD
:10512000134A05FB02A29BB2ABEB0303BCF800B031
:105130004FEA124A5B441FFA82FBDCF800208145EB
:10514000CBEB124202EB23429BB243EA02434FEA0B
:10515000224B4CF8043BDCD256F80E3033B9019B9D
:10516000043B9E421A4631D3C8F810404046FFF730
:1051700046FE002826DB30464FF0000E013557F87A
:10518000041BD0F800C08BB2AEEB03031FFA8CF205
:1051900013440A0CC2EB1C4202EB23429BB243EACB
:1051A0000243B9454FEA224E40F8043BE7D256F895
:1051B000242006EB84032AB9043B9E421A460BD3F3
:1051C000C8F81040284603B0BDE8F08F1268043BD1
:1051D000002AC9D1013CC4E71268043B002AEFD180
:1051E000013CEAE70020EEE72DE9F04F466A95B072
:1051F0000446219DCDE902233EB9102000F0C8FDF0
:105200006062466086600660C660636A196851B174
:105210005A68012393404A608B602046FFF71AFCCE
:105220000022636A1A60039B002BB7BF012300238F
:105230002B60039BAEBF2B6023F000430393DDF88C
:105240000C90AB4B33EA09031BD142F20F73209A47
:105250001360029B23B9C9F31300002800F0838573
:10526000229B53B9A34B21E0A34B06930833229A08
:105270001360069815B0BDE8F08F9E4B069303337C
:10528000F5E7DDE902670022002330463946FBF7E7
:1052900087FB804660B10123209A1360229B002B7C
:1052A00000F05E85954B229A1360013B0693E0E780
:1052B00012AB019313AB009332463B462046FFF7F7
:1052C00017FEC9F30A558246002D7DD03046C7F33C
:1052D000130343F07F5141F44011A5F2FF35CDF89F
:1052E00040800022864BFAF73FFF7BA3D3E90023DF
:1052F000FBF7EEF87AA3D3E90023FAF737FF064667
:1053000028460F46FBF77EF877A3D3E90023FBF787
:10531000DFF802460B4630463946FAF727FF0646C5
:105320000F46FBF76FFB00228346002330463946C9
:10533000FBF740FB58B15846FBF764F802460B46B2
:1053400030463946FBF72CFB08B90BF1FF3BBBF1AC
:10535000160F58D8DDE902236A4901EBCB01D1E9E8
:105360000001FBF745FB00284FD000230BF1FF3B6A
:105370000D93129B5D1B6B1E079343BF0023C5F16A
:10538000010807934FF00008BBF1000F3FDB079BBC
:10539000CDF830B05B440793002308931E9B092B84
:1053A00000F2B480052BC4BF043B1E931E9BC8BFF4
:1053B0000026A3F10203D8BF0126032B00F2B2801E
:1053C000DFE803F084862D78139B129D1D4405F2BF
:1053D0003243202B11DD029A05F21240C3F1400343
:1053E00022FA00F009FA03F31843FAF7FBFF01234E
:1053F000A1F1F871013D109373E7C3F12000029B06
:1054000003FA00F0F1E70123B2E70D90B1E7CBF129
:10541000000308930023A8EB0B080C93BEE70123BD
:1054200009931F9B002B40F3808099460493002230
:105430000421656A6A6001F114029A427AD96968A6
:105440002046FFF7D3FA636A28601B68B9F10E0F94
:10545000069300F2F080002E00F0ED80DDE90223DB
:10546000BBF1000FCDE90E2379DD264A0BF00F03C7
:105470004FEA2B1602EBC303F006D3E90023CDE974
:105480000A235CD5DDE90E011F4B0325D3E9082370
:10549000FBF748F9CDE9020106F00F061A4F002E7E
:1054A0004FD1DDE90A23DDE90201FBF73BF9CDE944
:1054B00002016EE0012309931F9B5B4403F1010984
:1054C00004934B46012BB8BF0123B0E70023A7E7A5
:1054D0000023F0E7AFF3008061436F63A787D23FFB
:1054E000B3C8608B288AC63FFB799F501344D33FD3
:1054F0000000F07F856100087C6100088A61000877
:105500000000F83FA8600008806000080126002322
:1055100009961E934FF0FF330022049399461223FD
:105520001F9284E701230993F4E70123049399462A
:105530001A46F5E76A68490001326A607BE702258E
:10554000ACE7F10708D5DDE90A01D7E90023FAF74E
:10555000BFFFCDE90A010135761008379FE700F05B
:10556000A580DDE90E01CBF10006A24B06F00F028B
:1055700003EBC203D3E90023FAF7AAFF02250023B5
:10558000CDE902019C4F3611002E40F08480002BA3
:105590008DD10D9B002B00F08B80DDE90223CDE93E
:1055A0000A23DDE90A010022944BFBF703FA0028E5
:1055B0007ED0B9F1000F7BD0049B002B37DDDDE9F5
:1055C0000A0100228E4BFAF783FFCDE90201049E07
:1055D0000BF1FF3701352846FAF714FFDDE9022306
:1055E000FAF776FF874B0022FAF7C0FDCDE90A01F2
:1055F0000B9BA3F150750B95002E5CD1DDE90201E8
:105600000022814BFAF7B0FD0A9A2B46CDE9020140
:10561000FBF7EEF9002840F0F782DDE902010A9A73
:1056200005F10043FBF7C6F9002840F0EB82DDE905
:105630000E23CDE90223139B002BC0F25081BBF156
:105640000E0F00F34C816B4B03EBCB03D3E900232C
:10565000CDE904231F9B002B80F2DA80B9F1000F03
:1056600000F3D68040F0CD82DDE904010022664BD4
:10567000FAF72EFFDDE90223FBF7B0F94E464F465D
:10568000002840F0A482069B069A5D1C31230BF192
:10569000010B13709FE2F20705D5D7E90023FAF753
:1056A00017FF01230135761008376DE7022570E7F3
:1056B0005F464E468FE7069A4E4B32441192099A46
:1056C000711E002A48D003EBC103D3E90023002058
:1056D0004E49FBF727F8DDE90A23FAF745FDCDE946
:1056E0000A01069DDDE90201FBF78CF90646FAF78F
:1056F00089FE02460B46DDE90201FAF735FDDDE9D8
:105700000A23303605F8016BCDE90201FBF752F9A7
:10571000002864D1DDE9022300203849FAF724FD8E
:10572000DDE90A23FBF746F9002840F0B980119B18
:105730009D423FF47CAFDDE90A010022304BFAF7CD
:10574000C7FE0022CDE90A01DDE902012C4BFAF780
:10575000BFFECDE90201C5E703EBC101D1E90001BC
:10576000DDE90A23FAF7B4FECDE90A01069DDDE979
:105770000201FBF747F90646FAF744FE02460B46DC
:10578000DDE90201FAF7F0FC3036119B05F8016BF8
:10579000AB42CDE902014FF0000224D11B4BDDE901
:1057A0000A01FAF7E3FC02460B46DDE90201FBF7CA
:1057B0001FF9002874D1DDE90A2300201349FAF704
:1057C000D3FC02460B46DDE90201FBF7F3F80028A3
:1057D0003FF42DAF15F8013C6A1E302B01D0BB46BB
:1057E0004DE01546F6E7064BFAF772FECDE90201E9
:1057F000BDE700BFA8600008806000080000F03F1F
:105800000000244000001C40000014400000E03F65
:10581000069DDDE90267DDE9042330463946FAF7E3
:1058200081FFFBF7EFF88046FAF7ECFDDDE9042392
:10583000FAF74EFE02460B4630463946FAF794FC1C
:1058400008F1300605F8016B069E0246AE1BB14515
:105850000B4637D1FAF78AFC06460F4602460B463E
:10586000DDE90401FBF7A6F8C8B9DDE90401324619
:105870003B46FBF795F810B118F0010F0FD15146D8
:105880002046FFF7E7F80023209A2B700BF1010365
:105890001360229B002B3FF4ECAC1D60E9E45F46F3
:1058A00015F8012C6B1E392A06D1069A9A4207D1A7
:1058B00030231370134601371A7801321A708EE7BD
:1058C0001D46EDE70022B54BFAF702FE0022002349
:1058D00006460F46FBF764F800289CD0CFE7099AEC
:1058E000002A00F029811E9A012A00F30E81109AE5
:1058F000002A00F0068103F233434546089E079ACA
:1059000001211A44204698440792FFF743F90746BD
:10591000002D0BDD079B002B08DDAB42A8BF2B46FB
:10592000079AA8EB0308ED1AD31A0793089BFBB15B
:10593000099B002B00F00481002E11DD3946324610
:105940002046FFF7BDF95246014607462046FFF7BD
:105950002AF951460A902046FFF77CF80A9B9A469E
:10596000089B9A1B04D051462046FFF7A9F98246AE
:1059700001212046FFF70EF90C9B0646002B40F351
:10598000E1801A4601462046FFF79AF91E9B06461B
:10599000012B40F3DA8000230893336906EB83037D
:1059A0001869FFF7A9F8C0F12000079B184410F010
:1059B0001F0000F0F080C0F12003042B40F3E280D0
:1059C000079BC0F11C008044054403440793B8F1D1
:1059D000000F05DD514642462046FFF7BFF98246DB
:1059E000079B002B05DD31461A462046FFF7B6F926
:1059F00006460D9B002B00F0D38031465046FFF742
:105A0000FEF9002880F2CC80002351460A2220466D
:105A1000FFF737F8099B0BF1FF3B8246002B00F0A4
:105A2000A981002339460A222046FFF72AF8049B61
:105A30000746002B03DC1E9B022B00F3B980002DD0
:105A400005DD39462A462046FFF788F90746089BB8
:105A5000002B00F0108179682046FEF7C7FF05464D
:105A60003A6907F10C01023292000C30FEF714FE85
:105A7000012229462046FFF771F907970746029B46
:105A8000DDF8188003F00103089331465046FFF714
:105A90001FFB0799054600F130095046FFF7AFF9A3
:105AA0003A46029031462046FFF7C3F9C3680246E2
:105AB000002B40F0E280014609905046FFF79FF925
:105AC0000346099A114620460993FEF7C3FF099B36
:105AD000002B40F0D4801E9A002A40F0D080089A13
